{
  "_format": "hh-sol-artifact-1",
  "contractName": "Token",
  "sourceName": "contracts/Token.sol",
  "abi": [
    {
      "inputs": [
        {
          "internalType": "string",
          "name": "_name",
          "type": "string"
        },
        {
          "internalType": "string",
          "name": "_symbol",
          "type": "string"
        },
        {
          "internalType": "uint8",
          "name": "_decimals",
          "type": "uint8"
        },
        {
          "internalType": "uint256",
          "name": "initialSupply",
          "type": "uint256"
        }
      ],
      "stateMutability": "nonpayable",
      "type": "constructor"
    },
    {
      "anonymous": false,
      "inputs": [
        {
          "indexed": true,
          "internalType": "address",
          "name": "burner",
          "type": "address"
        },
        {
          "indexed": false,
          "internalType": "uint256",
          "name": "amount",
          "type": "uint256"
        }
      ],
      "name": "Burn",
      "type": "event"
    },
    {
      "anonymous": false,
      "inputs": [
        {
          "indexed": true,
          "internalType": "address",
          "name": "from",
          "type": "address"
        },
        {
          "indexed": true,
          "internalType": "address",
          "name": "to",
          "type": "address"
        },
        {
          "indexed": false,
          "internalType": "uint256",
          "name": "value",
          "type": "uint256"
        }
      ],
      "name": "Transfer",
      "type": "event"
    },
    {
      "inputs": [
        {
          "internalType": "address",
          "name": "spender",
          "type": "address"
        },
        {
          "internalType": "uint256",
          "name": "amount",
          "type": "uint256"
        }
      ],
      "name": "approve",
      "outputs": [
        {
          "internalType": "bool",
          "name": "",
          "type": "bool"
        }
      ],
      "stateMutability": "nonpayable",
      "type": "function"
    },
    {
      "inputs": [
        {
          "internalType": "address",
          "name": "account",
          "type": "address"
        }
      ],
      "name": "balanceOf",
      "outputs": [
        {
          "internalType": "uint256",
          "name": "",
          "type": "uint256"
        }
      ],
      "stateMutability": "view",
      "type": "function"
    },
    {
      "inputs": [
        {
          "internalType": "uint256",
          "name": "amount",
          "type": "uint256"
        }
      ],
      "name": "burn",
      "outputs": [],
      "stateMutability": "nonpayable",
      "type": "function"
    },
    {
      "inputs": [],
      "name": "decimals",
      "outputs": [
        {
          "internalType": "uint8",
          "name": "",
          "type": "uint8"
        }
      ],
      "stateMutability": "view",
      "type": "function"
    },
    {
      "inputs": [],
      "name": "getTokenStats",
      "outputs": [
        {
          "internalType": "uint256",
          "name": "totalMinted",
          "type": "uint256"
        },
        {
          "internalType": "uint256",
          "name": "currentSupply",
          "type": "uint256"
        },
        {
          "internalType": "uint256",
          "name": "totalBurned",
          "type": "uint256"
        }
      ],
      "stateMutability": "view",
      "type": "function"
    },
    {
      "inputs": [
        {
          "internalType": "uint256",
          "name": "amount",
          "type": "uint256"
        }
      ],
      "name": "increaseTotalSupply",
      "outputs": [],
      "stateMutability": "nonpayable",
      "type": "function"
    },
    {
      "inputs": [],
      "name": "name",
      "outputs": [
        {
          "internalType": "string",
          "name": "",
          "type": "string"
        }
      ],
      "stateMutability": "view",
      "type": "function"
    },
    {
      "inputs": [],
      "name": "symbol",
      "outputs": [
        {
          "internalType": "string",
          "name": "",
          "type": "string"
        }
      ],
      "stateMutability": "view",
      "type": "function"
    },
    {
      "inputs": [],
      "name": "totalBurned",
      "outputs": [
        {
          "internalType": "uint256",
          "name": "",
          "type": "uint256"
        }
      ],
      "stateMutability": "view",
      "type": "function"
    },
    {
      "inputs": [],
      "name": "totalMinted",
      "outputs": [
        {
          "internalType": "uint256",
          "name": "",
          "type": "uint256"
        }
      ],
      "stateMutability": "view",
      "type": "function"
    },
    {
      "inputs": [],
      "name": "totalSupply",
      "outputs": [
        {
          "internalType": "uint256",
          "name": "",
          "type": "uint256"
        }
      ],
      "stateMutability": "view",
      "type": "function"
    },
    {
      "inputs": [
        {
          "internalType": "address",
          "name": "recipient",
          "type": "address"
        },
        {
          "internalType": "uint256",
          "name": "amount",
          "type": "uint256"
        }
      ],
      "name": "transfer",
      "outputs": [
        {
          "internalType": "bool",
          "name": "",
          "type": "bool"
        }
      ],
      "stateMutability": "nonpayable",
      "type": "function"
    },
    {
      "inputs": [
        {
          "internalType": "address",
          "name": "sender",
          "type": "address"
        },
        {
          "internalType": "address",
          "name": "recipient",
          "type": "address"
        },
        {
          "internalType": "uint256",
          "name": "amount",
          "type": "uint256"
        }
      ],
      "name": "transferFrom",
      "outputs": [
        {
          "internalType": "bool",
          "name": "",
          "type": "bool"
        }
      ],
      "stateMutability": "nonpayable",
      "type": "function"
    }
  ],
  "bytecode": "0x60806040523480156200001157600080fd5b5060405162000f9738038062000f97833981016040819052620000349162000258565b600062000042858262000372565b50600162000051848262000372565b506002805460ff191660ff841617905560088054336001600160a01b0319909116811790915562000083908262000090565b6006555062000466915050565b6001600160a01b038216620000eb5760405162461bcd60e51b815260206004820152601f60248201527f45524332303a206d696e7420746f20746865207a65726f206164647265737300604482015260640160405180910390fd5b8060056000828254620000ff91906200043e565b90915550506001600160a01b038216600090815260036020526040812080548392906200012e9084906200043e565b9250508190555080600660008282546200014991906200043e565b90915550506040518181526001600160a01b038316906000907fddf252ad1be2c89b69c2b068fc378daa952ba7f163c4a11628f55a4df523b3ef9060200160405180910390a35050565b634e487b7160e01b600052604160045260246000fd5b600082601f830112620001bb57600080fd5b81516001600160401b0380821115620001d857620001d862000193565b604051601f8301601f19908116603f0116810190828211818310171562000203576200020362000193565b816040528381526020925086838588010111156200022057600080fd5b600091505b8382101562000244578582018301518183018401529082019062000225565b600093810190920192909252949350505050565b600080600080608085870312156200026f57600080fd5b84516001600160401b03808211156200028757600080fd5b6200029588838901620001a9565b95506020870151915080821115620002ac57600080fd5b50620002bb87828801620001a9565b935050604085015160ff81168114620002d357600080fd5b6060959095015193969295505050565b600181811c90821680620002f857607f821691505b6020821081036200031957634e487b7160e01b600052602260045260246000fd5b50919050565b601f8211156200036d57600081815260208120601f850160051c81016020861015620003485750805b601f850160051c820191505b81811015620003695782815560010162000354565b5050505b505050565b81516001600160401b038111156200038e576200038e62000193565b620003a6816200039f8454620002e3565b846200031f565b602080601f831160018114620003de5760008415620003c55750858301515b600019600386901b1c1916600185901b17855562000369565b600085815260208120601f198616915b828110156200040f57888601518255948401946001909101908401620003ee565b50858210156200042e5787850151600019600388901b60f8161c191681555b5050505050600190811b01905550565b808201808211156200046057634e487b7160e01b600052601160045260246000fd5b92915050565b610b2180620004766000396000f3fe608060405234801561001057600080fd5b50600436106100cf5760003560e01c8063313ce5671161008c57806395d89b411161006657806395d89b41146101ce578063a2309ff8146101d6578063a9059cbb146101de578063d89135cd146101f157600080fd5b8063313ce5671461017357806342966c681461019257806370a08231146101a557600080fd5b806306fdde03146100d4578063095ea7b3146100f2578063097cd9bf1461011557806318160ddd146101395780631d43cc981461014b57806323b872dd14610160575b600080fd5b6100dc6101f9565b6040516100e99190610921565b60405180910390f35b61010561010036600461098b565b610287565b60405190151581526020016100e9565b600654600554600754604080519384526020840192909252908201526060016100e9565b6005545b6040519081526020016100e9565b61015e6101593660046109b5565b61029e565b005b61010561016e3660046109ce565b6102de565b6002546101809060ff1681565b60405160ff90911681526020016100e9565b61015e6101a03660046109b5565b61038d565b61013d6101b3366004610a0a565b6001600160a01b031660009081526003602052604090205490565b6100dc6103c1565b60065461013d565b6101056101ec36600461098b565b6103ce565b60075461013d565b6000805461020690610a2c565b80601f016020809104026020016040519081016040528092919081815260200182805461023290610a2c565b801561027f5780601f106102545761010080835404028352916020019161027f565b820191906000526020600020905b81548152906001019060200180831161026257829003601f168201915b505050505081565b60006102943384846103db565b5060015b92915050565b6008546001600160a01b031633146102d15760405162461bcd60e51b81526004016102c890610a66565b60405180910390fd5b6102db33826104ca565b50565b6001600160a01b0383166000908152600460209081526040808320338452909152812054828110156103635760405162461bcd60e51b815260206004820152602860248201527f45524332303a207472616e7366657220616d6f756e74206578636565647320616044820152676c6c6f77616e636560c01b60648201526084016102c8565b61036e8585856105c2565b610382853361037d8685610ac5565b6103db565b506001949350505050565b6008546001600160a01b031633146103b75760405162461bcd60e51b81526004016102c890610a66565b6102db33826107ad565b6001805461020690610a2c565b60006102943384846105c2565b6001600160a01b03831661043d5760405162461bcd60e51b8152602060048201526024808201527f45524332303a20617070726f76652066726f6d20746865207a65726f206164646044820152637265737360e01b60648201526084016102c8565b6001600160a01b03821661049e5760405162461bcd60e51b815260206004820152602260248201527f45524332303a20617070726f766520746f20746865207a65726f206164647265604482015261737360f01b60648201526084016102c8565b6001600160a01b0392831660009081526004602090815260408083209490951682529290925291902055565b6001600160a01b0382166105205760405162461bcd60e51b815260206004820152601f60248201527f45524332303a206d696e7420746f20746865207a65726f20616464726573730060448201526064016102c8565b80600560008282546105329190610ad8565b90915550506001600160a01b0382166000908152600360205260408120805483929061055f908490610ad8565b9250508190555080600660008282546105789190610ad8565b90915550506040518181526001600160a01b038316906000907fddf252ad1be2c89b69c2b068fc378daa952ba7f163c4a11628f55a4df523b3ef9060200160405180910390a35050565b6001600160a01b0383166106265760405162461bcd60e51b815260206004820152602560248201527f45524332303a207472616e736665722066726f6d20746865207a65726f206164604482015264647265737360d81b60648201526084016102c8565b6001600160a01b0382166106885760405162461bcd60e51b815260206004820152602360248201527f45524332303a207472616e7366657220746f20746865207a65726f206164647260448201526265737360e81b60648201526084016102c8565b6001600160a01b0383166000908152600360205260409020548111156106ff5760405162461bcd60e51b815260206004820152602660248201527f45524332303a207472616e7366657220616d6f756e7420657863656564732062604482015265616c616e636560d01b60648201526084016102c8565b6001600160a01b03831660009081526003602052604081208054839290610727908490610ac5565b90915550506001600160a01b03821660009081526003602052604081208054839290610754908490610ad8565b92505081905550816001600160a01b0316836001600160a01b03167fddf252ad1be2c89b69c2b068fc378daa952ba7f163c4a11628f55a4df523b3ef836040516107a091815260200190565b60405180910390a3505050565b6001600160a01b03821661080d5760405162461bcd60e51b815260206004820152602160248201527f45524332303a206275726e2066726f6d20746865207a65726f206164647265736044820152607360f81b60648201526084016102c8565b6001600160a01b0382166000908152600360205260409020548111156108805760405162461bcd60e51b815260206004820152602260248201527f45524332303a206275726e20616d6f756e7420657863656564732062616c616e604482015261636560f01b60648201526084016102c8565b6001600160a01b038216600090815260036020526040812080548392906108a8908490610ac5565b9250508190555080600560008282546108c19190610ac5565b9250508190555080600760008282546108da9190610ad8565b90915550506040518181526001600160a01b038316907fcc16f5dbb4873280815c1ee09dbd06736cffcc184412cf7a71a0fdb75d397ca59060200160405180910390a25050565b600060208083528351808285015260005b8181101561094e57858101830151858201604001528201610932565b506000604082860101526040601f19601f8301168501019250505092915050565b80356001600160a01b038116811461098657600080fd5b919050565b6000806040838503121561099e57600080fd5b6109a78361096f565b946020939093013593505050565b6000602082840312156109c757600080fd5b5035919050565b6000806000606084860312156109e357600080fd5b6109ec8461096f565b92506109fa6020850161096f565b9150604084013590509250925092565b600060208284031215610a1c57600080fd5b610a258261096f565b9392505050565b600181811c90821680610a4057607f821691505b602082108103610a6057634e487b7160e01b600052602260045260246000fd5b50919050565b60208082526029908201527f45524332303a204f6e6c79206f776e65722063616e20706572666f726d20746860408201526834b99030b1ba34b7b760b91b606082015260800190565b634e487b7160e01b600052601160045260246000fd5b8181038181111561029857610298610aaf565b8082018082111561029857610298610aaf56fea2646970667358221220f5b28418f358f00b66f123d6326b9d94423d2a6800cc33dc0d1cebb7cabda8ec64736f6c63430008140033",
  "linkReferences": {},
  "deployedLinkReferences": {}
}