{
  "_format": "hh-sol-artifact-1",
  "contractName": "ICOContract",
  "sourceName": "contracts/IcoContract.sol",
  "abi": [
    {
      "inputs": [
        {
          "internalType": "address",
          "name": "_paymentToken",
          "type": "address"
        },
        {
          "internalType": "address",
          "name": "_icoToken",
          "type": "address"
        },
        {
          "internalType": "uint256",
          "name": "_tokenPrice",
          "type": "uint256"
        },
        {
          "internalType": "address",
          "name": "_ethUsdPriceFeed",
          "type": "address"
        }
      ],
      "stateMutability": "nonpayable",
      "type": "constructor"
    },
    {
      "anonymous": false,
      "inputs": [
        {
          "indexed": true,
          "internalType": "address",
          "name": "sender",
          "type": "address"
        },
        {
          "indexed": false,
          "internalType": "uint256",
          "name": "amount",
          "type": "uint256"
        }
      ],
      "name": "EthReceived",
      "type": "event"
    },
    {
      "anonymous": false,
      "inputs": [
        {
          "indexed": true,
          "internalType": "address",
          "name": "buyer",
          "type": "address"
        },
        {
          "indexed": false,
          "internalType": "uint256",
          "name": "amount",
          "type": "uint256"
        },
        {
          "indexed": false,
          "internalType": "bool",
          "name": "paidInEth",
          "type": "bool"
        }
      ],
      "name": "TokensPurchased",
      "type": "event"
    },
    {
      "anonymous": false,
      "inputs": [
        {
          "indexed": true,
          "internalType": "address",
          "name": "admin",
          "type": "address"
        },
        {
          "indexed": false,
          "internalType": "uint256",
          "name": "amount",
          "type": "uint256"
        }
      ],
      "name": "TokensWithdrawn",
      "type": "event"
    },
    {
      "inputs": [],
      "name": "admin",
      "outputs": [
        {
          "internalType": "address",
          "name": "",
          "type": "address"
        }
      ],
      "stateMutability": "view",
      "type": "function"
    },
    {
      "inputs": [
        {
          "internalType": "uint256",
          "name": "_paymentAmount",
          "type": "uint256"
        }
      ],
      "name": "buyTokens",
      "outputs": [],
      "stateMutability": "nonpayable",
      "type": "function"
    },
    {
      "inputs": [],
      "name": "buyTokensWithETH",
      "outputs": [],
      "stateMutability": "payable",
      "type": "function"
    },
    {
      "inputs": [],
      "name": "ethUsdPriceFeed",
      "outputs": [
        {
          "internalType": "contract AggregatorV3Interface",
          "name": "",
          "type": "address"
        }
      ],
      "stateMutability": "view",
      "type": "function"
    },
    {
      "inputs": [],
      "name": "getETHBalance",
      "outputs": [
        {
          "internalType": "uint256",
          "name": "",
          "type": "uint256"
        }
      ],
      "stateMutability": "view",
      "type": "function"
    },
    {
      "inputs": [],
      "name": "getLatestETHPrice",
      "outputs": [
        {
          "internalType": "uint256",
          "name": "",
          "type": "uint256"
        }
      ],
      "stateMutability": "view",
      "type": "function"
    },
    {
      "inputs": [
        {
          "internalType": "uint256",
          "name": "tokenAmount",
          "type": "uint256"
        }
      ],
      "name": "getRequiredETHAmount",
      "outputs": [
        {
          "internalType": "uint256",
          "name": "",
          "type": "uint256"
        }
      ],
      "stateMutability": "view",
      "type": "function"
    },
    {
      "inputs": [],
      "name": "getTokenBalance",
      "outputs": [
        {
          "internalType": "uint256",
          "name": "",
          "type": "uint256"
        }
      ],
      "stateMutability": "view",
      "type": "function"
    },
    {
      "inputs": [],
      "name": "icoToken",
      "outputs": [
        {
          "internalType": "contract IERC20",
          "name": "",
          "type": "address"
        }
      ],
      "stateMutability": "view",
      "type": "function"
    },
    {
      "inputs": [],
      "name": "paymentToken",
      "outputs": [
        {
          "internalType": "contract IERC20",
          "name": "",
          "type": "address"
        }
      ],
      "stateMutability": "view",
      "type": "function"
    },
    {
      "inputs": [],
      "name": "tokenPrice",
      "outputs": [
        {
          "internalType": "uint256",
          "name": "",
          "type": "uint256"
        }
      ],
      "stateMutability": "view",
      "type": "function"
    },
    {
      "inputs": [],
      "name": "totalTokensSold",
      "outputs": [
        {
          "internalType": "uint256",
          "name": "",
          "type": "uint256"
        }
      ],
      "stateMutability": "view",
      "type": "function"
    },
    {
      "inputs": [
        {
          "internalType": "uint256",
          "name": "_newPrice",
          "type": "uint256"
        }
      ],
      "name": "updateTokenPrice",
      "outputs": [],
      "stateMutability": "nonpayable",
      "type": "function"
    },
    {
      "inputs": [
        {
          "internalType": "uint256",
          "name": "_amount",
          "type": "uint256"
        }
      ],
      "name": "withdrawETH",
      "outputs": [],
      "stateMutability": "nonpayable",
      "type": "function"
    },
    {
      "inputs": [
        {
          "internalType": "uint256",
          "name": "_amount",
          "type": "uint256"
        }
      ],
      "name": "withdrawFunds",
      "outputs": [],
      "stateMutability": "nonpayable",
      "type": "function"
    },
    {
      "inputs": [
        {
          "internalType": "uint256",
          "name": "_amount",
          "type": "uint256"
        }
      ],
      "name": "withdrawRemainingTokens",
      "outputs": [],
      "stateMutability": "nonpayable",
      "type": "function"
    },
    {
      "stateMutability": "payable",
      "type": "receive"
    }
  ],
  "bytecode": "0x60806040523480156200001157600080fd5b506040516200131538038062001315833981016040819052620000349162000211565b6001600160a01b038416620000905760405162461bcd60e51b815260206004820152601d60248201527f496e76616c6964207061796d656e7420746f6b656e206164647265737300000060448201526064015b60405180910390fd5b6001600160a01b038316620000e85760405162461bcd60e51b815260206004820152601960248201527f496e76616c69642049434f20746f6b656e206164647265737300000000000000604482015260640162000087565b60008211620001485760405162461bcd60e51b815260206004820152602560248201527f546f6b656e207072696365206d7573742062652067726561746572207468616e604482015264207a65726f60d81b606482015260840162000087565b6001600160a01b038116620001a05760405162461bcd60e51b815260206004820152601a60248201527f496e76616c696420707269636520666565642061646472657373000000000000604482015260640162000087565b600080546001600160a01b03199081163317909155600180546001600160a01b0396871690831617905560028054948616948216949094179093556003919091556005805491909316911617905562000265565b80516001600160a01b03811681146200020c57600080fd5b919050565b600080600080608085870312156200022857600080fd5b6200023385620001f4565b93506200024360208601620001f4565b9250604085015191506200025a60608601620001f4565b905092959194509250565b6110a080620002756000396000f3fe6080604052600436106100f75760003560e01c80637052dad91161008a5780639c0caad6116100595780639c0caad6146102ae578063c83c1b45146102b6578063f14210a6146102d6578063f851a440146102f657600080fd5b80637052dad91461024e578063777e0d861461026e5780637ff9b5961461028357806382b2e2571461029957600080fd5b806342f6fb29116100c657806342f6fb29146101d757806363b20117146101f7578063676c0d771461021b5780636e9472981461023b57600080fd5b8063155dd5ee14610138578063260c2cec1461015a5780633013ce29146101975780633610724e146101b757600080fd5b366101335760405134815233907f85177f287940f2f05425a4029951af0e047a7f9c4eaa9a6e6917bcd869f866959060200160405180910390a2005b600080fd5b34801561014457600080fd5b50610158610153366004610e85565b610316565b005b34801561016657600080fd5b5060025461017a906001600160a01b031681565b6040516001600160a01b0390911681526020015b60405180910390f35b3480156101a357600080fd5b5060015461017a906001600160a01b031681565b3480156101c357600080fd5b506101586101d2366004610e85565b6104d4565b3480156101e357600080fd5b5060055461017a906001600160a01b031681565b34801561020357600080fd5b5061020d60045481565b60405190815260200161018e565b34801561022757600080fd5b50610158610236366004610e85565b610740565b34801561024757600080fd5b504761020d565b34801561025a57600080fd5b50610158610269366004610e85565b6107bf565b34801561027a57600080fd5b5061020d6109c3565b34801561028f57600080fd5b5061020d60035481565b3480156102a557600080fd5b5061020d610a8c565b610158610afe565b3480156102c257600080fd5b5061020d6102d1366004610e85565b610cf5565b3480156102e257600080fd5b506101586102f1366004610e85565b610d4c565b34801561030257600080fd5b5060005461017a906001600160a01b031681565b6000546001600160a01b031633146103495760405162461bcd60e51b815260040161034090610e9e565b60405180910390fd5b600081116103695760405162461bcd60e51b815260040161034090610ee0565b6001546040516370a0823160e01b815230600482015282916001600160a01b0316906370a0823190602401602060405180830381865afa1580156103b1573d6000803e3d6000fd5b505050506040513d601f19601f820116820180604052508101906103d59190610f15565b10156104185760405162461bcd60e51b8152602060048201526012602482015271496e73756666696369656e742066756e647360701b6044820152606401610340565b60015460005460405163a9059cbb60e01b81526001600160a01b0391821660048201526024810184905291169063a9059cbb906044016020604051808303816000875af115801561046d573d6000803e3d6000fd5b505050506040513d601f19601f820116820180604052508101906104919190610f2e565b6104d15760405162461bcd60e51b815260206004820152601160248201527015da5d1a191c985dd85b0819985a5b1959607a1b6044820152606401610340565b50565b600081116105355760405162461bcd60e51b815260206004820152602860248201527f5061796d656e7420616d6f756e74206d7573742062652067726561746572207460448201526768616e207a65726f60c01b6064820152608401610340565b60035460009061054d83670de0b6b3a7640000610f6d565b6105579190610f8a565b9050600081116105795760405162461bcd60e51b815260040161034090610fac565b6001546040516323b872dd60e01b8152336004820152306024820152604481018490526001600160a01b03909116906323b872dd906064016020604051808303816000875af11580156105d0573d6000803e3d6000fd5b505050506040513d601f19601f820116820180604052508101906105f49190610f2e565b6106315760405162461bcd60e51b815260206004820152600e60248201526d14185e5b595b9d0819985a5b195960921b6044820152606401610340565b60025460405163a9059cbb60e01b8152336004820152602481018390526001600160a01b039091169063a9059cbb906044016020604051808303816000875af1158015610682573d6000803e3d6000fd5b505050506040513d601f19601f820116820180604052508101906106a69190610f2e565b6106ea5760405162461bcd60e51b8152602060048201526015602482015274151bdad95b881d1c985b9cd9995c8819985a5b1959605a1b6044820152606401610340565b80600460008282546106fc9190610fed565b9091555050604080518281526000602082015233917f0ea576a332c77589cbeda817b213b2523a657301fb817b66aaab967a646d8b10910160405180910390a25050565b6000546001600160a01b0316331461076a5760405162461bcd60e51b815260040161034090610e9e565b600081116107ba5760405162461bcd60e51b815260206004820152601f60248201527f5072696365206d7573742062652067726561746572207468616e207a65726f006044820152606401610340565b600355565b6000546001600160a01b031633146107e95760405162461bcd60e51b815260040161034090610e9e565b600081116108095760405162461bcd60e51b815260040161034090610ee0565b6002546040516370a0823160e01b815230600482015282916001600160a01b0316906370a0823190602401602060405180830381865afa158015610851573d6000803e3d6000fd5b505050506040513d601f19601f820116820180604052508101906108759190610f15565b10156108b95760405162461bcd60e51b8152602060048201526013602482015272496e73756666696369656e7420746f6b656e7360681b6044820152606401610340565b60025460005460405163a9059cbb60e01b81526001600160a01b0391821660048201526024810184905291169063a9059cbb906044016020604051808303816000875af115801561090e573d6000803e3d6000fd5b505050506040513d601f19601f820116820180604052508101906109329190610f2e565b61097e5760405162461bcd60e51b815260206004820152601760248201527f546f6b656e207769746864726177616c206661696c65640000000000000000006044820152606401610340565b6000546040518281526001600160a01b03909116907f6352c5382c4a4578e712449ca65e83cdb392d045dfcf1cad9615189db2da244b9060200160405180910390a250565b600080600560009054906101000a90046001600160a01b03166001600160a01b031663feaf968c6040518163ffffffff1660e01b815260040160a060405180830381865afa158015610a19573d6000803e3d6000fd5b505050506040513d601f19601f82011682018060405250810190610a3d919061101a565b50505091505060008113610a875760405162461bcd60e51b8152602060048201526011602482015270496e76616c69642045544820707269636560781b6044820152606401610340565b919050565b6002546040516370a0823160e01b81523060048201526000916001600160a01b0316906370a0823190602401602060405180830381865afa158015610ad5573d6000803e3d6000fd5b505050506040513d601f19601f82011682018060405250810190610af99190610f15565b905090565b60003411610b3e5760405162461bcd60e51b815260206004820152600d60248201526c09aeae6e840e6cadcc8408aa89609b1b6044820152606401610340565b6000610b486109c3565b90506000670de0b6b3a7640000610b5f8334610f6d565b610b699190610f8a565b9050600060035482670de0b6b3a7640000610b849190610f6d565b610b8e9190610f8a565b905060008111610bb05760405162461bcd60e51b815260040161034090610fac565b60025460405163a9059cbb60e01b8152336004820152602481018390526001600160a01b039091169063a9059cbb906044016020604051808303816000875af1158015610c01573d6000803e3d6000fd5b505050506040513d601f19601f82011682018060405250810190610c259190610f2e565b610c695760405162461bcd60e51b8152602060048201526015602482015274151bdad95b881d1c985b9cd9995c8819985a5b1959605a1b6044820152606401610340565b8060046000828254610c7b9190610fed565b9091555050604080518281526001602082015233917f0ea576a332c77589cbeda817b213b2523a657301fb817b66aaab967a646d8b10910160405180910390a260405134815233907f85177f287940f2f05425a4029951af0e047a7f9c4eaa9a6e6917bcd869f866959060200160405180910390a2505050565b600080670de0b6b3a764000060035484610d0f9190610f6d565b610d199190610f8a565b90506000610d256109c3565b905080610d3a83670de0b6b3a7640000610f6d565b610d449190610f8a565b949350505050565b6000546001600160a01b03163314610d765760405162461bcd60e51b815260040161034090610e9e565b60008111610d965760405162461bcd60e51b815260040161034090610ee0565b80471015610de65760405162461bcd60e51b815260206004820152601860248201527f496e73756666696369656e74204554482062616c616e636500000000000000006044820152606401610340565b600080546040516001600160a01b039091169083908381818185875af1925050503d8060008114610e33576040519150601f19603f3d011682016040523d82523d6000602084013e610e38565b606091505b5050905080610e815760405162461bcd60e51b8152602060048201526015602482015274115512081dda5d1a191c985dd85b0819985a5b1959605a1b6044820152606401610340565b5050565b600060208284031215610e9757600080fd5b5035919050565b60208082526022908201527f4f6e6c792061646d696e2063616e20706572666f726d2074686973206163746960408201526137b760f11b606082015260800190565b6020808252818101527f416d6f756e74206d7573742062652067726561746572207468616e207a65726f604082015260600190565b600060208284031215610f2757600080fd5b5051919050565b600060208284031215610f4057600080fd5b81518015158114610f5057600080fd5b9392505050565b634e487b7160e01b600052601160045260246000fd5b8082028115828204841417610f8457610f84610f57565b92915050565b600082610fa757634e487b7160e01b600052601260045260246000fd5b500490565b60208082526021908201527f416d6f756e7420746f6f206c6f7720746f20707572636861736520746f6b656e6040820152607360f81b606082015260800190565b80820180821115610f8457610f84610f57565b805169ffffffffffffffffffff81168114610a8757600080fd5b600080600080600060a0868803121561103257600080fd5b61103b86611000565b945060208601519350604086015192506060860151915061105e60808701611000565b9050929550929590935056fea2646970667358221220b49fd27bbf07cfd3563c2ec46cbc93433497b77649d02514f84dd8e47fd394d764736f6c63430008140033",
  "linkReferences": {},
  "deployedLinkReferences": {}
}