{
  "_format": "hh-sol-artifact-1",
  "contractName": "AdminManager",
  "sourceName": "contracts/AdminManager.sol",
  "abi": [
    {
      "inputs": [],
      "stateMutability": "nonpayable",
      "type": "constructor"
    },
    {
      "anonymous": false,
      "inputs": [
        {
          "indexed": true,
          "internalType": "address",
          "name": "newAdmin",
          "type": "address"
        }
      ],
      "name": "AdminAdded",
      "type": "event"
    },
    {
      "anonymous": false,
      "inputs": [
        {
          "indexed": true,
          "internalType": "address",
          "name": "removedAdmin",
          "type": "address"
        }
      ],
      "name": "AdminRemoved",
      "type": "event"
    },
    {
      "anonymous": false,
      "inputs": [
        {
          "indexed": true,
          "internalType": "address",
          "name": "oldAdmin",
          "type": "address"
        },
        {
          "indexed": true,
          "internalType": "address",
          "name": "newAdmin",
          "type": "address"
        }
      ],
      "name": "SuperAdminChanged",
      "type": "event"
    },
    {
      "inputs": [
        {
          "internalType": "address",
          "name": "_newAdmin",
          "type": "address"
        }
      ],
      "name": "addAdmin",
      "outputs": [],
      "stateMutability": "nonpayable",
      "type": "function"
    },
    {
      "inputs": [
        {
          "internalType": "address",
          "name": "_address",
          "type": "address"
        }
      ],
      "name": "addressExists",
      "outputs": [
        {
          "internalType": "bool",
          "name": "",
          "type": "bool"
        }
      ],
      "stateMutability": "view",
      "type": "function"
    },
    {
      "inputs": [],
      "name": "getAdmins",
      "outputs": [
        {
          "internalType": "address[]",
          "name": "",
          "type": "address[]"
        }
      ],
      "stateMutability": "view",
      "type": "function"
    },
    {
      "inputs": [
        {
          "internalType": "address",
          "name": "",
          "type": "address"
        }
      ],
      "name": "isAdmin",
      "outputs": [
        {
          "internalType": "bool",
          "name": "",
          "type": "bool"
        }
      ],
      "stateMutability": "view",
      "type": "function"
    },
    {
      "inputs": [
        {
          "internalType": "address",
          "name": "_admin",
          "type": "address"
        }
      ],
      "name": "removeAdmin",
      "outputs": [],
      "stateMutability": "nonpayable",
      "type": "function"
    },
    {
      "inputs": [],
      "name": "superAdmin",
      "outputs": [
        {
          "internalType": "address",
          "name": "",
          "type": "address"
        }
      ],
      "stateMutability": "view",
      "type": "function"
    }
  ],
  "bytecode": "608060405234801561000f575f80fd5b50335f806101000a81548173ffffffffffffffffffffffffffffffffffffffff021916908373ffffffffffffffffffffffffffffffffffffffff1602179055506001805f3373ffffffffffffffffffffffffffffffffffffffff1673ffffffffffffffffffffffffffffffffffffffff1681526020019081526020015f205f6101000a81548160ff021916908315150217905550600233908060018154018082558091505060019003905f5260205f20015f9091909190916101000a81548173ffffffffffffffffffffffffffffffffffffffff021916908373ffffffffffffffffffffffffffffffffffffffff160217905550610d9b806101105f395ff3fe608060405234801561000f575f80fd5b5060043610610060575f3560e01c80631785f53c1461006457806324d7806c1461008057806329575f6a146100b057806331ae450b146100ce57806370480275146100ec578063a502522214610108575b5f80fd5b61007e600480360381019061007991906108e1565b610138565b005b61009a600480360381019061009591906108e1565b6104eb565b6040516100a79190610926565b60405180910390f35b6100b8610508565b6040516100c5919061094e565b60405180910390f35b6100d661052b565b6040516100e39190610a1e565b60405180910390f35b610106600480360381019061010191906108e1565b6105b6565b005b610122600480360381019061011d91906108e1565b610831565b60405161012f9190610926565b60405180910390f35b60015f3373ffffffffffffffffffffffffffffffffffffffff1673ffffffffffffffffffffffffffffffffffffffff1681526020019081526020015f205f9054906101000a900460ff166101c1576040517f08c379a00000000000000000000000000000000000000000000000000000000081526004016101b890610abe565b60405180910390fd5b60015f8273ffffffffffffffffffffffffffffffffffffffff1673ffffffffffffffffffffffffffffffffffffffff1681526020019081526020015f205f9054906101000a900460ff1661024a576040517f08c379a000000000000000000000000000000000000000000000000000000000815260040161024190610b26565b60405180910390fd5b5f8054906101000a900473ffffffffffffffffffffffffffffffffffffffff1673ffffffffffffffffffffffffffffffffffffffff168173ffffffffffffffffffffffffffffffffffffffff16036102d7576040517f08c379a00000000000000000000000000000000000000000000000000000000081526004016102ce90610bb4565b60405180910390fd5b5f60015f8373ffffffffffffffffffffffffffffffffffffffff1673ffffffffffffffffffffffffffffffffffffffff1681526020019081526020015f205f6101000a81548160ff0219169083151502179055505f5b6002805490508110156104a4578173ffffffffffffffffffffffffffffffffffffffff166002828154811061036557610364610bd2565b5b905f5260205f20015f9054906101000a900473ffffffffffffffffffffffffffffffffffffffff1673ffffffffffffffffffffffffffffffffffffffff160361049757600260016002805490506103bc9190610c35565b815481106103cd576103cc610bd2565b5b905f5260205f20015f9054906101000a900473ffffffffffffffffffffffffffffffffffffffff166002828154811061040957610408610bd2565b5b905f5260205f20015f6101000a81548173ffffffffffffffffffffffffffffffffffffffff021916908373ffffffffffffffffffffffffffffffffffffffff16021790555060028054806104605761045f610c68565b5b600190038181905f5260205f20015f6101000a81549073ffffffffffffffffffffffffffffffffffffffff021916905590556104a4565b808060010191505061032d565b508073ffffffffffffffffffffffffffffffffffffffff167fa3b62bc36326052d97ea62d63c3d60308ed4c3ea8ac079dd8499f1e9c4f80c0f60405160405180910390a250565b6001602052805f5260405f205f915054906101000a900460ff1681565b5f8054906101000a900473ffffffffffffffffffffffffffffffffffffffff1681565b606060028054806020026020016040519081016040528092919081815260200182805480156105ac57602002820191905f5260205f20905b815f9054906101000a900473ffffffffffffffffffffffffffffffffffffffff1673ffffffffffffffffffffffffffffffffffffffff1681526020019060010190808311610563575b5050505050905090565b60015f3373ffffffffffffffffffffffffffffffffffffffff1673ffffffffffffffffffffffffffffffffffffffff1681526020019081526020015f205f9054906101000a900460ff1661063f576040517f08c379a000000000000000000000000000000000000000000000000000000000815260040161063690610abe565b60405180910390fd5b5f73ffffffffffffffffffffffffffffffffffffffff168173ffffffffffffffffffffffffffffffffffffffff16036106ad576040517f08c379a00000000000000000000000000000000000000000000000000000000081526004016106a490610cdf565b60405180910390fd5b60015f8273ffffffffffffffffffffffffffffffffffffffff1673ffffffffffffffffffffffffffffffffffffffff1681526020019081526020015f205f9054906101000a900460ff1615610737576040517f08c379a000000000000000000000000000000000000000000000000000000000815260040161072e90610d47565b60405180910390fd5b6001805f8373ffffffffffffffffffffffffffffffffffffffff1673ffffffffffffffffffffffffffffffffffffffff1681526020019081526020015f205f6101000a81548160ff021916908315150217905550600281908060018154018082558091505060019003905f5260205f20015f9091909190916101000a81548173ffffffffffffffffffffffffffffffffffffffff021916908373ffffffffffffffffffffffffffffffffffffffff1602179055508073ffffffffffffffffffffffffffffffffffffffff167f44d6d25963f097ad14f29f06854a01f575648a1ef82f30e562ccd3889717e33960405160405180910390a250565b5f60015f8373ffffffffffffffffffffffffffffffffffffffff1673ffffffffffffffffffffffffffffffffffffffff1681526020019081526020015f205f9054906101000a900460ff169050919050565b5f80fd5b5f73ffffffffffffffffffffffffffffffffffffffff82169050919050565b5f6108b082610887565b9050919050565b6108c0816108a6565b81146108ca575f80fd5b50565b5f813590506108db816108b7565b92915050565b5f602082840312156108f6576108f5610883565b5b5f610903848285016108cd565b91505092915050565b5f8115159050919050565b6109208161090c565b82525050565b5f6020820190506109395f830184610917565b92915050565b610948816108a6565b82525050565b5f6020820190506109615f83018461093f565b92915050565b5f81519050919050565b5f82825260208201905092915050565b5f819050602082019050919050565b610999816108a6565b82525050565b5f6109aa8383610990565b60208301905092915050565b5f602082019050919050565b5f6109cc82610967565b6109d68185610971565b93506109e183610981565b805f5b83811015610a115781516109f8888261099f565b9750610a03836109b6565b9250506001810190506109e4565b5085935050505092915050565b5f6020820190508181035f830152610a3681846109c2565b905092915050565b5f82825260208201905092915050565b7f4f6e6c792061646d696e2063616e20706572666f726d2074686973206f7065725f8201527f6174696f6e000000000000000000000000000000000000000000000000000000602082015250565b5f610aa8602583610a3e565b9150610ab382610a4e565b604082019050919050565b5f6020820190508181035f830152610ad581610a9c565b9050919050565b7f41646d696e20646f6573206e6f742065786973740000000000000000000000005f82015250565b5f610b10601483610a3e565b9150610b1b82610adc565b602082019050919050565b5f6020820190508181035f830152610b3d81610b04565b9050919050565b7f43616e6e6f742072656d6f76652073757065722061646d696e206469726563745f8201527f6c79000000000000000000000000000000000000000000000000000000000000602082015250565b5f610b9e602283610a3e565b9150610ba982610b44565b604082019050919050565b5f6020820190508181035f830152610bcb81610b92565b9050919050565b7f4e487b71000000000000000000000000000000000000000000000000000000005f52603260045260245ffd5b5f819050919050565b7f4e487b71000000000000000000000000000000000000000000000000000000005f52601160045260245ffd5b5f610c3f82610bff565b9150610c4a83610bff565b9250828203905081811115610c6257610c61610c08565b5b92915050565b7f4e487b71000000000000000000000000000000000000000000000000000000005f52603160045260245ffd5b7f496e76616c6964206164647265737300000000000000000000000000000000005f82015250565b5f610cc9600f83610a3e565b9150610cd482610c95565b602082019050919050565b5f6020820190508181035f830152610cf681610cbd565b9050919050565b7f41646d696e20616c7265616479206578697374730000000000000000000000005f82015250565b5f610d31601483610a3e565b9150610d3c82610cfd565b602082019050919050565b5f6020820190508181035f830152610d5e81610d25565b905091905056fea2646970667358221220251a4710db212a4e5a20389a735bc4e8a6a4054f3f337dd55a036b973f94ef1564736f6c634300081a0033",
  "linkReferences": {},
  "deployedLinkReferences": {}
}