{
  "_format": "hh-sol-artifact-1",
  "contractName": "ICOContract",
  "sourceName": "contracts/IcoContract.sol",
  "abi": [
    {
      "inputs": [
        {
          "internalType": "address[]",
          "name": "_paymentTokens",
          "type": "address[]"
        },
        {
          "internalType": "address",
          "name": "_icoToken",
          "type": "address"
        },
        {
          "internalType": "uint256",
          "name": "_tokenPrice",
          "type": "uint256"
        },
        {
          "internalType": "address",
          "name": "_adminManager",
          "type": "address"
        }
      ],
      "stateMutability": "nonpayable",
      "type": "constructor"
    },
    {
      "anonymous": false,
      "inputs": [
        {
          "indexed": false,
          "internalType": "uint256",
          "name": "tokenAmount",
          "type": "uint256"
        },
        {
          "indexed": false,
          "internalType": "uint256",
          "name": "paymentAmount",
          "type": "uint256"
        }
      ],
      "name": "EmergencyWithdraw",
      "type": "event"
    },
    {
      "anonymous": false,
      "inputs": [
        {
          "indexed": false,
          "internalType": "address",
          "name": "token",
          "type": "address"
        },
        {
          "indexed": false,
          "internalType": "bool",
          "name": "allowed",
          "type": "bool"
        }
      ],
      "name": "PaymentTokenAllowed",
      "type": "event"
    },
    {
      "anonymous": false,
      "inputs": [
        {
          "indexed": false,
          "internalType": "uint256",
          "name": "newPercent",
          "type": "uint256"
        }
      ],
      "name": "RewardPercentUpdated",
      "type": "event"
    },
    {
      "anonymous": false,
      "inputs": [
        {
          "indexed": true,
          "internalType": "address",
          "name": "staking",
          "type": "address"
        }
      ],
      "name": "StakingContractSet",
      "type": "event"
    },
    {
      "anonymous": false,
      "inputs": [
        {
          "indexed": true,
          "internalType": "address",
          "name": "buyer",
          "type": "address"
        },
        {
          "indexed": false,
          "internalType": "uint256",
          "name": "amount",
          "type": "uint256"
        },
        {
          "indexed": false,
          "internalType": "uint256",
          "name": "reward",
          "type": "uint256"
        },
        {
          "indexed": false,
          "internalType": "uint256",
          "name": "paymentAmount",
          "type": "uint256"
        },
        {
          "indexed": false,
          "internalType": "address",
          "name": "paymentToken",
          "type": "address"
        }
      ],
      "name": "TokensPurchased",
      "type": "event"
    },
    {
      "anonymous": false,
      "inputs": [
        {
          "indexed": true,
          "internalType": "address",
          "name": "admin",
          "type": "address"
        },
        {
          "indexed": false,
          "internalType": "uint256",
          "name": "amount",
          "type": "uint256"
        }
      ],
      "name": "TokensWithdrawn",
      "type": "event"
    },
    {
      "inputs": [
        {
          "internalType": "address",
          "name": "token",
          "type": "address"
        }
      ],
      "name": "addPaymentToken",
      "outputs": [],
      "stateMutability": "nonpayable",
      "type": "function"
    },
    {
      "inputs": [],
      "name": "adminManager",
      "outputs": [
        {
          "internalType": "contract AdminManager",
          "name": "",
          "type": "address"
        }
      ],
      "stateMutability": "view",
      "type": "function"
    },
    {
      "inputs": [
        {
          "internalType": "address",
          "name": "",
          "type": "address"
        }
      ],
      "name": "allowedPaymentTokens",
      "outputs": [
        {
          "internalType": "bool",
          "name": "",
          "type": "bool"
        }
      ],
      "stateMutability": "view",
      "type": "function"
    },
    {
      "inputs": [
        {
          "internalType": "address",
          "name": "paymentTokenAddr",
          "type": "address"
        },
        {
          "internalType": "uint256",
          "name": "_paymentAmount",
          "type": "uint256"
        }
      ],
      "name": "buyTokens",
      "outputs": [],
      "stateMutability": "nonpayable",
      "type": "function"
    },
    {
      "inputs": [],
      "name": "emergencyWithdraw",
      "outputs": [],
      "stateMutability": "nonpayable",
      "type": "function"
    },
    {
      "inputs": [],
      "name": "getTokenBalance",
      "outputs": [
        {
          "internalType": "uint256",
          "name": "",
          "type": "uint256"
        }
      ],
      "stateMutability": "view",
      "type": "function"
    },
    {
      "inputs": [
        {
          "internalType": "address",
          "name": "tokenAddr",
          "type": "address"
        }
      ],
      "name": "getTokenBalanceOf",
      "outputs": [
        {
          "internalType": "uint256",
          "name": "",
          "type": "uint256"
        }
      ],
      "stateMutability": "view",
      "type": "function"
    },
    {
      "inputs": [],
      "name": "icoToken",
      "outputs": [
        {
          "internalType": "contract IERC20",
          "name": "",
          "type": "address"
        }
      ],
      "stateMutability": "view",
      "type": "function"
    },
    {
      "inputs": [
        {
          "internalType": "bool",
          "name": "_pause",
          "type": "bool"
        }
      ],
      "name": "pause",
      "outputs": [],
      "stateMutability": "nonpayable",
      "type": "function"
    },
    {
      "inputs": [],
      "name": "paused",
      "outputs": [
        {
          "internalType": "bool",
          "name": "",
          "type": "bool"
        }
      ],
      "stateMutability": "view",
      "type": "function"
    },
    {
      "inputs": [],
      "name": "priceDecimals",
      "outputs": [
        {
          "internalType": "uint8",
          "name": "",
          "type": "uint8"
        }
      ],
      "stateMutability": "view",
      "type": "function"
    },
    {
      "inputs": [
        {
          "internalType": "address",
          "name": "token",
          "type": "address"
        }
      ],
      "name": "removePaymentToken",
      "outputs": [],
      "stateMutability": "nonpayable",
      "type": "function"
    },
    {
      "inputs": [],
      "name": "rewardPercent",
      "outputs": [
        {
          "internalType": "uint256",
          "name": "",
          "type": "uint256"
        }
      ],
      "stateMutability": "view",
      "type": "function"
    },
    {
      "inputs": [
        {
          "internalType": "uint256",
          "name": "_percent",
          "type": "uint256"
        }
      ],
      "name": "setRewardPercent",
      "outputs": [],
      "stateMutability": "nonpayable",
      "type": "function"
    },
    {
      "inputs": [
        {
          "internalType": "uint256",
          "name": "_percent",
          "type": "uint256"
        }
      ],
      "name": "setRewardPercentFromStaking",
      "outputs": [],
      "stateMutability": "nonpayable",
      "type": "function"
    },
    {
      "inputs": [
        {
          "internalType": "address",
          "name": "_staking",
          "type": "address"
        }
      ],
      "name": "setStakingContract",
      "outputs": [],
      "stateMutability": "nonpayable",
      "type": "function"
    },
    {
      "inputs": [
        {
          "internalType": "uint256",
          "name": "_newPrice",
          "type": "uint256"
        }
      ],
      "name": "setTokenPriceFromStaking",
      "outputs": [],
      "stateMutability": "nonpayable",
      "type": "function"
    },
    {
      "inputs": [],
      "name": "stakingContract",
      "outputs": [
        {
          "internalType": "address",
          "name": "",
          "type": "address"
        }
      ],
      "stateMutability": "view",
      "type": "function"
    },
    {
      "inputs": [],
      "name": "superAdmin",
      "outputs": [
        {
          "internalType": "address",
          "name": "",
          "type": "address"
        }
      ],
      "stateMutability": "view",
      "type": "function"
    },
    {
      "inputs": [],
      "name": "tokenPrice",
      "outputs": [
        {
          "internalType": "uint256",
          "name": "",
          "type": "uint256"
        }
      ],
      "stateMutability": "view",
      "type": "function"
    },
    {
      "inputs": [],
      "name": "totalTokensSold",
      "outputs": [
        {
          "internalType": "uint256",
          "name": "",
          "type": "uint256"
        }
      ],
      "stateMutability": "view",
      "type": "function"
    },
    {
      "inputs": [
        {
          "internalType": "uint256",
          "name": "_newPrice",
          "type": "uint256"
        }
      ],
      "name": "updateTokenPrice",
      "outputs": [],
      "stateMutability": "nonpayable",
      "type": "function"
    },
    {
      "inputs": [
        {
          "internalType": "uint256",
          "name": "_amount",
          "type": "uint256"
        }
      ],
      "name": "withdrawRemainingTokens",
      "outputs": [],
      "stateMutability": "nonpayable",
      "type": "function"
    }
  ],
  "bytecode": "6080604052600660045f6101000a81548160ff021916908360ff160217905550606460055534801561002f575f80fd5b506040516134b43803806134b483398181016040528101906100519190610501565b5f73ffffffffffffffffffffffffffffffffffffffff168373ffffffffffffffffffffffffffffffffffffffff16036100bf576040517f08c379a00000000000000000000000000000000000000000000000000000000081526004016100b6906105db565b60405180910390fd5b5f73ffffffffffffffffffffffffffffffffffffffff168173ffffffffffffffffffffffffffffffffffffffff160361012d576040517f08c379a000000000000000000000000000000000000000000000000000000000815260040161012490610643565b60405180910390fd5b5f821161016f576040517f08c379a0000000000000000000000000000000000000000000000000000000008152600401610166906106ab565b60405180910390fd5b335f806101000a81548173ffffffffffffffffffffffffffffffffffffffff021916908373ffffffffffffffffffffffffffffffffffffffff1602179055505f5b8451811015610282575f73ffffffffffffffffffffffffffffffffffffffff168582815181106101e3576101e26106c9565b5b602002602001015173ffffffffffffffffffffffffffffffffffffffff1614610275576001805f87848151811061021d5761021c6106c9565b5b602002602001015173ffffffffffffffffffffffffffffffffffffffff1673ffffffffffffffffffffffffffffffffffffffff1681526020019081526020015f205f6101000a81548160ff0219169083151502179055505b80806001019150506101b0565b508260025f6101000a81548173ffffffffffffffffffffffffffffffffffffffff021916908373ffffffffffffffffffffffffffffffffffffffff160217905550816003819055508060065f6101000a81548173ffffffffffffffffffffffffffffffffffffffff021916908373ffffffffffffffffffffffffffffffffffffffff160217905550505050506106f6565b5f604051905090565b5f80fd5b5f80fd5b5f80fd5b5f601f19601f8301169050919050565b7f4e487b71000000000000000000000000000000000000000000000000000000005f52604160045260245ffd5b61036e82610328565b810181811067ffffffffffffffff8211171561038d5761038c610338565b5b80604052505050565b5f61039f610313565b90506103ab8282610365565b919050565b5f67ffffffffffffffff8211156103ca576103c9610338565b5b602082029050602081019050919050565b5f80fd5b5f73ffffffffffffffffffffffffffffffffffffffff82169050919050565b5f610408826103df565b9050919050565b610418816103fe565b8114610422575f80fd5b50565b5f815190506104338161040f565b92915050565b5f61044b610446846103b0565b610396565b9050808382526020820190506020840283018581111561046e5761046d6103db565b5b835b8181101561049757806104838882610425565b845260208401935050602081019050610470565b5050509392505050565b5f82601f8301126104b5576104b4610324565b5b81516104c5848260208601610439565b91505092915050565b5f819050919050565b6104e0816104ce565b81146104ea575f80fd5b50565b5f815190506104fb816104d7565b92915050565b5f805f80608085870312156105195761051861031c565b5b5f85015167ffffffffffffffff81111561053657610535610320565b5b610542878288016104a1565b945050602061055387828801610425565b9350506040610564878288016104ed565b925050606061057587828801610425565b91505092959194509250565b5f82825260208201905092915050565b7f496e76616c69642049434f20746f6b656e0000000000000000000000000000005f82015250565b5f6105c5601183610581565b91506105d082610591565b602082019050919050565b5f6020820190508181035f8301526105f2816105b9565b9050919050565b7f496e76616c69642061646d696e206d616e6167657200000000000000000000005f82015250565b5f61062d601583610581565b9150610638826105f9565b602082019050919050565b5f6020820190508181035f83015261065a81610621565b9050919050565b7f5072696365206d757374203e20300000000000000000000000000000000000005f82015250565b5f610695600e83610581565b91506106a082610661565b602082019050919050565b5f6020820190508181035f8301526106c281610689565b9050919050565b7f4e487b71000000000000000000000000000000000000000000000000000000005f52603260045260245ffd5b612db1806107035f395ff3fe608060405234801561000f575f80fd5b506004361061014b575f3560e01c80637ff9b596116100c1578063a51254211161007a578063a512542114610363578063c1c5dd271461037f578063cfe20d4d1461039b578063d0302051146103b7578063db2e21bc146103d5578063ee99205c146103df5761014b565b80637ff9b596146102a157806382b2e257146102bf57806383894548146102dd578063867d0cdd1461030d5780639dd373b914610329578063a210b6a4146103455761014b565b80634a7dc8e0116101135780634a7dc8e0146101e15780635c975abb146101fd57806363b201171461021b578063676c0d7714610239578063697d312a146102555780637052dad9146102855761014b565b806302329a291461014f57806305300b281461016b5780630752881a14610189578063260c2cec146101a557806329575f6a146101c3575b5f80fd5b61016960048036038101906101649190611d96565b6103fd565b005b6101736104f1565b6040516101809190611ddc565b60405180910390f35b6101a3600480360381019061019e9190611e82565b610503565b005b6101ad610bdd565b6040516101ba9190611f1b565b60405180910390f35b6101cb610c02565b6040516101d89190611f43565b60405180910390f35b6101fb60048036038101906101f69190611f5c565b610c25565b005b610205610dfc565b6040516102129190611f96565b60405180910390f35b610223610e0e565b6040516102309190611fbe565b60405180910390f35b610253600480360381019061024e9190611fd7565b610e14565b005b61026f600480360381019061026a9190611f5c565b610f38565b60405161027c9190611f96565b60405180910390f35b61029f600480360381019061029a9190611fd7565b610f55565b005b6102a9611272565b6040516102b69190611fbe565b60405180910390f35b6102c7611278565b6040516102d49190611fbe565b60405180910390f35b6102f760048036038101906102f29190611f5c565b611317565b6040516103049190611fbe565b60405180910390f35b61032760048036038101906103229190611fd7565b611397565b005b610343600480360381019061033e9190611f5c565b6114ad565b005b61034d61167a565b60405161035a9190612022565b60405180910390f35b61037d60048036038101906103789190611f5c565b61169f565b005b61039960048036038101906103949190611fd7565b611875565b005b6103b560048036038101906103b09190611fd7565b6119d3565b005b6103bf611aaf565b6040516103cc9190611fbe565b60405180910390f35b6103dd611ab5565b005b6103e7611d2a565b6040516103f49190611f43565b60405180910390f35b60065f9054906101000a900473ffffffffffffffffffffffffffffffffffffffff1673ffffffffffffffffffffffffffffffffffffffff166324d7806c336040518263ffffffff1660e01b81526004016104579190611f43565b602060405180830381865afa158015610472573d5f803e3d5ffd5b505050506040513d601f19601f82011682018060405250810190610496919061204f565b6104d5576040517f08c379a00000000000000000000000000000000000000000000000000000000081526004016104cc906120d4565b60405180910390fd5b8060085f6101000a81548160ff02191690831515021790555050565b60045f9054906101000a900460ff1681565b60085f9054906101000a900460ff1615610552576040517f08c379a00000000000000000000000000000000000000000000000000000000081526004016105499061213c565b60405180910390fd5b5f8111610594576040517f08c379a000000000000000000000000000000000000000000000000000000000815260040161058b906121a4565b60405180910390fd5b60015f8373ffffffffffffffffffffffffffffffffffffffff1673ffffffffffffffffffffffffffffffffffffffff1681526020019081526020015f205f9054906101000a900460ff1661061d576040517f08c379a00000000000000000000000000000000000000000000000000000000081526004016106149061220c565b60405180910390fd5b5f8290505f8173ffffffffffffffffffffffffffffffffffffffff1663313ce5676040518163ffffffff1660e01b8152600401602060405180830381865afa15801561066b573d5f803e3d5ffd5b505050506040513d601f19601f8201168201806040525081019061068f9190612254565b90505f60025f9054906101000a900473ffffffffffffffffffffffffffffffffffffffff1673ffffffffffffffffffffffffffffffffffffffff1663313ce5676040518163ffffffff1660e01b8152600401602060405180830381865afa1580156106fc573d5f803e3d5ffd5b505050506040513d601f19601f820116820180604052508101906107209190612254565b90505f82600a61073091906123db565b60045f9054906101000a900460ff16600a61074b91906123db565b866107569190612425565b6107609190612493565b90505f60035483600a61077391906123db565b8361077e9190612425565b6107889190612493565b90505f81116107cc576040517f08c379a00000000000000000000000000000000000000000000000000000000081526004016107c39061250d565b60405180910390fd5b8473ffffffffffffffffffffffffffffffffffffffff166323b872dd3330896040518463ffffffff1660e01b81526004016108099392919061252b565b6020604051808303815f875af1158015610825573d5f803e3d5ffd5b505050506040513d601f19601f82011682018060405250810190610849919061204f565b610888576040517f08c379a000000000000000000000000000000000000000000000000000000000815260040161087f906125aa565b60405180910390fd5b5f60065f9054906101000a900473ffffffffffffffffffffffffffffffffffffffff1673ffffffffffffffffffffffffffffffffffffffff166331ae450b6040518163ffffffff1660e01b81526004015f60405180830381865afa1580156108f2573d5f803e3d5ffd5b505050506040513d5f823e3d601f19601f8201168201806040525081019061091a919061272c565b90505f81511161095f576040517f08c379a0000000000000000000000000000000000000000000000000000000008152600401610956906127bd565b60405180910390fd5b5f81518861096d9190612493565b90505f5b8251811015610a5b578773ffffffffffffffffffffffffffffffffffffffff1663a9059cbb8483815181106109a9576109a86127db565b5b6020026020010151846040518363ffffffff1660e01b81526004016109cf929190612808565b6020604051808303815f875af11580156109eb573d5f803e3d5ffd5b505050506040513d601f19601f82011682018060405250810190610a0f919061204f565b610a4e576040517f08c379a0000000000000000000000000000000000000000000000000000000008152600401610a4590612879565b60405180910390fd5b8080600101915050610971565b505f61271060055485610a6e9190612425565b610a789190612493565b90505f8185610a879190612897565b905060025f9054906101000a900473ffffffffffffffffffffffffffffffffffffffff1673ffffffffffffffffffffffffffffffffffffffff1663a9059cbb33836040518363ffffffff1660e01b8152600401610ae5929190612808565b6020604051808303815f875af1158015610b01573d5f803e3d5ffd5b505050506040513d601f19601f82011682018060405250810190610b25919061204f565b610b64576040517f08c379a0000000000000000000000000000000000000000000000000000000008152600401610b5b90612914565b60405180910390fd5b8460075f828254610b759190612897565b925050819055503373ffffffffffffffffffffffffffffffffffffffff167fd5249cada4fc3ed9e82bbb9f9418330de80562be437eb6666d415c9216fe7d9d86848d8f604051610bc89493929190612932565b60405180910390a25050505050505050505050565b60025f9054906101000a900473ffffffffffffffffffffffffffffffffffffffff1681565b5f8054906101000a900473ffffffffffffffffffffffffffffffffffffffff1681565b60065f9054906101000a900473ffffffffffffffffffffffffffffffffffffffff1673ffffffffffffffffffffffffffffffffffffffff166324d7806c336040518263ffffffff1660e01b8152600401610c7f9190611f43565b602060405180830381865afa158015610c9a573d5f803e3d5ffd5b505050506040513d601f19601f82011682018060405250810190610cbe919061204f565b610cfd576040517f08c379a0000000000000000000000000000000000000000000000000000000008152600401610cf4906120d4565b60405180910390fd5b5f73ffffffffffffffffffffffffffffffffffffffff168173ffffffffffffffffffffffffffffffffffffffff1603610d6b576040517f08c379a0000000000000000000000000000000000000000000000000000000008152600401610d62906129bf565b60405180910390fd5b6001805f8373ffffffffffffffffffffffffffffffffffffffff1673ffffffffffffffffffffffffffffffffffffffff1681526020019081526020015f205f6101000a81548160ff0219169083151502179055507f44fd9e401d43b510a520ef2a3cee9de208a5ee753db6e62ed7b96714290e81e0816001604051610df19291906129dd565b60405180910390a150565b60085f9054906101000a900460ff1681565b60075481565b60065f9054906101000a900473ffffffffffffffffffffffffffffffffffffffff1673ffffffffffffffffffffffffffffffffffffffff166324d7806c336040518263ffffffff1660e01b8152600401610e6e9190611f43565b602060405180830381865afa158015610e89573d5f803e3d5ffd5b505050506040513d601f19601f82011682018060405250810190610ead919061204f565b610eec576040517f08c379a0000000000000000000000000000000000000000000000000000000008152600401610ee3906120d4565b60405180910390fd5b5f8111610f2e576040517f08c379a0000000000000000000000000000000000000000000000000000000008152600401610f2590612a4e565b60405180910390fd5b8060038190555050565b6001602052805f5260405f205f915054906101000a900460ff1681565b60065f9054906101000a900473ffffffffffffffffffffffffffffffffffffffff1673ffffffffffffffffffffffffffffffffffffffff166324d7806c336040518263ffffffff1660e01b8152600401610faf9190611f43565b602060405180830381865afa158015610fca573d5f803e3d5ffd5b505050506040513d601f19601f82011682018060405250810190610fee919061204f565b61102d576040517f08c379a0000000000000000000000000000000000000000000000000000000008152600401611024906120d4565b60405180910390fd5b8060025f9054906101000a900473ffffffffffffffffffffffffffffffffffffffff1673ffffffffffffffffffffffffffffffffffffffff166370a08231306040518263ffffffff1660e01b81526004016110889190611f43565b602060405180830381865afa1580156110a3573d5f803e3d5ffd5b505050506040513d601f19601f820116820180604052508101906110c79190612a80565b1015611108576040517f08c379a00000000000000000000000000000000000000000000000000000000081526004016110ff90612af5565b60405180910390fd5b60025f9054906101000a900473ffffffffffffffffffffffffffffffffffffffff1673ffffffffffffffffffffffffffffffffffffffff1663a9059cbb5f8054906101000a900473ffffffffffffffffffffffffffffffffffffffff16836040518363ffffffff1660e01b8152600401611183929190612808565b6020604051808303815f875af115801561119f573d5f803e3d5ffd5b505050506040513d601f19601f820116820180604052508101906111c3919061204f565b611202576040517f08c379a00000000000000000000000000000000000000000000000000000000081526004016111f990612b5d565b60405180910390fd5b5f8054906101000a900473ffffffffffffffffffffffffffffffffffffffff1673ffffffffffffffffffffffffffffffffffffffff167f6352c5382c4a4578e712449ca65e83cdb392d045dfcf1cad9615189db2da244b826040516112679190611fbe565b60405180910390a250565b60035481565b5f60025f9054906101000a900473ffffffffffffffffffffffffffffffffffffffff1673ffffffffffffffffffffffffffffffffffffffff166370a08231306040518263ffffffff1660e01b81526004016112d39190611f43565b602060405180830381865afa1580156112ee573d5f803e3d5ffd5b505050506040513d601f19601f820116820180604052508101906113129190612a80565b905090565b5f8173ffffffffffffffffffffffffffffffffffffffff166370a08231306040518263ffffffff1660e01b81526004016113519190611f43565b602060405180830381865afa15801561136c573d5f803e3d5ffd5b505050506040513d601f19601f820116820180604052508101906113909190612a80565b9050919050565b600860019054906101000a900473ffffffffffffffffffffffffffffffffffffffff1673ffffffffffffffffffffffffffffffffffffffff163373ffffffffffffffffffffffffffffffffffffffff1614611427576040517f08c379a000000000000000000000000000000000000000000000000000000000815260040161141e90612bc5565b60405180910390fd5b61271081111561146c576040517f08c379a000000000000000000000000000000000000000000000000000000000815260040161146390612c2d565b60405180910390fd5b806005819055507ff85fe1c18047489ac83fd666cfe9bc5c101b62f21eac46ee6e22979d12d1ec6e816040516114a29190611fbe565b60405180910390a150565b60065f9054906101000a900473ffffffffffffffffffffffffffffffffffffffff1673ffffffffffffffffffffffffffffffffffffffff166324d7806c336040518263ffffffff1660e01b81526004016115079190611f43565b602060405180830381865afa158015611522573d5f803e3d5ffd5b505050506040513d601f19601f82011682018060405250810190611546919061204f565b611585576040517f08c379a000000000000000000000000000000000000000000000000000000000815260040161157c906120d4565b60405180910390fd5b5f73ffffffffffffffffffffffffffffffffffffffff168173ffffffffffffffffffffffffffffffffffffffff16036115f3576040517f08c379a00000000000000000000000000000000000000000000000000000000081526004016115ea90612c95565b60405180910390fd5b80600860016101000a81548173ffffffffffffffffffffffffffffffffffffffff021916908373ffffffffffffffffffffffffffffffffffffffff1602179055508073ffffffffffffffffffffffffffffffffffffffff167f1253844b0fff3da7dd2829de816c9b4f94c238cf2bf6eb72c02c7d6f2b53beac60405160405180910390a250565b60065f9054906101000a900473ffffffffffffffffffffffffffffffffffffffff1681565b60065f9054906101000a900473ffffffffffffffffffffffffffffffffffffffff1673ffffffffffffffffffffffffffffffffffffffff166324d7806c336040518263ffffffff1660e01b81526004016116f99190611f43565b602060405180830381865afa158015611714573d5f803e3d5ffd5b505050506040513d601f19601f82011682018060405250810190611738919061204f565b611777576040517f08c379a000000000000000000000000000000000000000000000000000000000815260040161176e906120d4565b60405180910390fd5b5f73ffffffffffffffffffffffffffffffffffffffff168173ffffffffffffffffffffffffffffffffffffffff16036117e5576040517f08c379a00000000000000000000000000000000000000000000000000000000081526004016117dc906129bf565b60405180910390fd5b5f60015f8373ffffffffffffffffffffffffffffffffffffffff1673ffffffffffffffffffffffffffffffffffffffff1681526020019081526020015f205f6101000a81548160ff0219169083151502179055507f44fd9e401d43b510a520ef2a3cee9de208a5ee753db6e62ed7b96714290e81e0815f60405161186a9291906129dd565b60405180910390a150565b60065f9054906101000a900473ffffffffffffffffffffffffffffffffffffffff1673ffffffffffffffffffffffffffffffffffffffff166324d7806c336040518263ffffffff1660e01b81526004016118cf9190611f43565b602060405180830381865afa1580156118ea573d5f803e3d5ffd5b505050506040513d601f19601f8201168201806040525081019061190e919061204f565b61194d576040517f08c379a0000000000000000000000000000000000000000000000000000000008152600401611944906120d4565b60405180910390fd5b612710811115611992576040517f08c379a000000000000000000000000000000000000000000000000000000000815260040161198990612c2d565b60405180910390fd5b806005819055507ff85fe1c18047489ac83fd666cfe9bc5c101b62f21eac46ee6e22979d12d1ec6e816040516119c89190611fbe565b60405180910390a150565b600860019054906101000a900473ffffffffffffffffffffffffffffffffffffffff1673ffffffffffffffffffffffffffffffffffffffff163373ffffffffffffffffffffffffffffffffffffffff1614611a63576040517f08c379a0000000000000000000000000000000000000000000000000000000008152600401611a5a90612bc5565b60405180910390fd5b5f8111611aa5576040517f08c379a0000000000000000000000000000000000000000000000000000000008152600401611a9c90612cfd565b60405180910390fd5b8060038190555050565b60055481565b60065f9054906101000a900473ffffffffffffffffffffffffffffffffffffffff1673ffffffffffffffffffffffffffffffffffffffff166324d7806c336040518263ffffffff1660e01b8152600401611b0f9190611f43565b602060405180830381865afa158015611b2a573d5f803e3d5ffd5b505050506040513d601f19601f82011682018060405250810190611b4e919061204f565b611b8d576040517f08c379a0000000000000000000000000000000000000000000000000000000008152600401611b84906120d4565b60405180910390fd5b5f60025f9054906101000a900473ffffffffffffffffffffffffffffffffffffffff1673ffffffffffffffffffffffffffffffffffffffff166370a08231306040518263ffffffff1660e01b8152600401611be89190611f43565b602060405180830381865afa158015611c03573d5f803e3d5ffd5b505050506040513d601f19601f82011682018060405250810190611c279190612a80565b90505f811115611cee5760025f9054906101000a900473ffffffffffffffffffffffffffffffffffffffff1673ffffffffffffffffffffffffffffffffffffffff1663a9059cbb5f8054906101000a900473ffffffffffffffffffffffffffffffffffffffff16836040518363ffffffff1660e01b8152600401611cac929190612808565b6020604051808303815f875af1158015611cc8573d5f803e3d5ffd5b505050506040513d601f19601f82011682018060405250810190611cec919061204f565b505b7fb073e6fbd06d7557d2c82f414fee57de28e7fb517ecc0afdd6b1fc57034a9cb8815f604051611d1f929190612d54565b60405180910390a150565b600860019054906101000a900473ffffffffffffffffffffffffffffffffffffffff1681565b5f604051905090565b5f80fd5b5f80fd5b5f8115159050919050565b611d7581611d61565b8114611d7f575f80fd5b50565b5f81359050611d9081611d6c565b92915050565b5f60208284031215611dab57611daa611d59565b5b5f611db884828501611d82565b91505092915050565b5f60ff82169050919050565b611dd681611dc1565b82525050565b5f602082019050611def5f830184611dcd565b92915050565b5f73ffffffffffffffffffffffffffffffffffffffff82169050919050565b5f611e1e82611df5565b9050919050565b611e2e81611e14565b8114611e38575f80fd5b50565b5f81359050611e4981611e25565b92915050565b5f819050919050565b611e6181611e4f565b8114611e6b575f80fd5b50565b5f81359050611e7c81611e58565b92915050565b5f8060408385031215611e9857611e97611d59565b5b5f611ea585828601611e3b565b9250506020611eb685828601611e6e565b9150509250929050565b5f819050919050565b5f611ee3611ede611ed984611df5565b611ec0565b611df5565b9050919050565b5f611ef482611ec9565b9050919050565b5f611f0582611eea565b9050919050565b611f1581611efb565b82525050565b5f602082019050611f2e5f830184611f0c565b92915050565b611f3d81611e14565b82525050565b5f602082019050611f565f830184611f34565b92915050565b5f60208284031215611f7157611f70611d59565b5b5f611f7e84828501611e3b565b91505092915050565b611f9081611d61565b82525050565b5f602082019050611fa95f830184611f87565b92915050565b611fb881611e4f565b82525050565b5f602082019050611fd15f830184611faf565b92915050565b5f60208284031215611fec57611feb611d59565b5b5f611ff984828501611e6e565b91505092915050565b5f61200c82611eea565b9050919050565b61201c81612002565b82525050565b5f6020820190506120355f830184612013565b92915050565b5f8151905061204981611d6c565b92915050565b5f6020828403121561206457612063611d59565b5b5f6120718482850161203b565b91505092915050565b5f82825260208201905092915050565b7f4f6e6c792061646d696e000000000000000000000000000000000000000000005f82015250565b5f6120be600a8361207a565b91506120c98261208a565b602082019050919050565b5f6020820190508181035f8301526120eb816120b2565b9050919050565b7f50617573656400000000000000000000000000000000000000000000000000005f82015250565b5f61212660068361207a565b9150612131826120f2565b602082019050919050565b5f6020820190508181035f8301526121538161211a565b9050919050565b7f416d6f756e74203d2030000000000000000000000000000000000000000000005f82015250565b5f61218e600a8361207a565b91506121998261215a565b602082019050919050565b5f6020820190508181035f8301526121bb81612182565b9050919050565b7f5061796d656e7420746f6b656e206e6f7420616c6c6f776564000000000000005f82015250565b5f6121f660198361207a565b9150612201826121c2565b602082019050919050565b5f6020820190508181035f830152612223816121ea565b9050919050565b61223381611dc1565b811461223d575f80fd5b50565b5f8151905061224e8161222a565b92915050565b5f6020828403121561226957612268611d59565b5b5f61227684828501612240565b91505092915050565b7f4e487b71000000000000000000000000000000000000000000000000000000005f52601160045260245ffd5b5f8160011c9050919050565b5f808291508390505b6001851115612301578086048111156122dd576122dc61227f565b5b60018516156122ec5780820291505b80810290506122fa856122ac565b94506122c1565b94509492505050565b5f8261231957600190506123d4565b81612326575f90506123d4565b816001811461233c576002811461234657612375565b60019150506123d4565b60ff8411156123585761235761227f565b5b8360020a91508482111561236f5761236e61227f565b5b506123d4565b5060208310610133831016604e8410600b84101617156123aa5782820a9050838111156123a5576123a461227f565b5b6123d4565b6123b784848460016122b8565b925090508184048111156123ce576123cd61227f565b5b81810290505b9392505050565b5f6123e582611e4f565b91506123f083611dc1565b925061241d7fffffffffffffffffffffffffffffffffffffffffffffffffffffffffffffffff848461230a565b905092915050565b5f61242f82611e4f565b915061243a83611e4f565b925082820261244881611e4f565b9150828204841483151761245f5761245e61227f565b5b5092915050565b7f4e487b71000000000000000000000000000000000000000000000000000000005f52601260045260245ffd5b5f61249d82611e4f565b91506124a883611e4f565b9250826124b8576124b7612466565b5b828204905092915050565b7f546f6f20736d616c6c00000000000000000000000000000000000000000000005f82015250565b5f6124f760098361207a565b9150612502826124c3565b602082019050919050565b5f6020820190508181035f830152612524816124eb565b9050919050565b5f60608201905061253e5f830186611f34565b61254b6020830185611f34565b6125586040830184611faf565b949350505050565b7f5061796d656e74206661696c65640000000000000000000000000000000000005f82015250565b5f612594600e8361207a565b915061259f82612560565b602082019050919050565b5f6020820190508181035f8301526125c181612588565b9050919050565b5f80fd5b5f601f19601f8301169050919050565b7f4e487b71000000000000000000000000000000000000000000000000000000005f52604160045260245ffd5b612612826125cc565b810181811067ffffffffffffffff82111715612631576126306125dc565b5b80604052505050565b5f612643611d50565b905061264f8282612609565b919050565b5f67ffffffffffffffff82111561266e5761266d6125dc565b5b602082029050602081019050919050565b5f80fd5b5f8151905061269181611e25565b92915050565b5f6126a96126a484612654565b61263a565b905080838252602082019050602084028301858111156126cc576126cb61267f565b5b835b818110156126f557806126e18882612683565b8452602084019350506020810190506126ce565b5050509392505050565b5f82601f830112612713576127126125c8565b5b8151612723848260208601612697565b91505092915050565b5f6020828403121561274157612740611d59565b5b5f82015167ffffffffffffffff81111561275e5761275d611d5d565b5b61276a848285016126ff565b91505092915050565b7f4e6f2061646d696e7320617661696c61626c65000000000000000000000000005f82015250565b5f6127a760138361207a565b91506127b282612773565b602082019050919050565b5f6020820190508181035f8301526127d48161279b565b9050919050565b7f4e487b71000000000000000000000000000000000000000000000000000000005f52603260045260245ffd5b5f60408201905061281b5f830185611f34565b6128286020830184611faf565b9392505050565b7f41646d696e207472616e73666572206661696c656400000000000000000000005f82015250565b5f61286360158361207a565b915061286e8261282f565b602082019050919050565b5f6020820190508181035f83015261289081612857565b9050919050565b5f6128a182611e4f565b91506128ac83611e4f565b92508282019050808211156128c4576128c361227f565b5b92915050565b7f49434f207472616e73666572206661696c6564000000000000000000000000005f82015250565b5f6128fe60138361207a565b9150612909826128ca565b602082019050919050565b5f6020820190508181035f83015261292b816128f2565b9050919050565b5f6080820190506129455f830187611faf565b6129526020830186611faf565b61295f6040830185611faf565b61296c6060830184611f34565b95945050505050565b7f496e76616c696420746f6b656e000000000000000000000000000000000000005f82015250565b5f6129a9600d8361207a565b91506129b482612975565b602082019050919050565b5f6020820190508181035f8301526129d68161299d565b9050919050565b5f6040820190506129f05f830185611f34565b6129fd6020830184611f87565b9392505050565b7f5072696365206d757374203e20300000000000000000000000000000000000005f82015250565b5f612a38600e8361207a565b9150612a4382612a04565b602082019050919050565b5f6020820190508181035f830152612a6581612a2c565b9050919050565b5f81519050612a7a81611e58565b92915050565b5f60208284031215612a9557612a94611d59565b5b5f612aa284828501612a6c565b91505092915050565b7f496e73756666696369656e7400000000000000000000000000000000000000005f82015250565b5f612adf600c8361207a565b9150612aea82612aab565b602082019050919050565b5f6020820190508181035f830152612b0c81612ad3565b9050919050565b7f546f6b656e207769746864726177206661696c656400000000000000000000005f82015250565b5f612b4760158361207a565b9150612b5282612b13565b602082019050919050565b5f6020820190508181035f830152612b7481612b3b565b9050919050565b7f4f6e6c79207374616b696e6720636f6e747261637400000000000000000000005f82015250565b5f612baf60158361207a565b9150612bba82612b7b565b602082019050919050565b5f6020820190508181035f830152612bdc81612ba3565b9050919050565b7f4d617820313030250000000000000000000000000000000000000000000000005f82015250565b5f612c1760088361207a565b9150612c2282612be3565b602082019050919050565b5f6020820190508181035f830152612c4481612c0b565b9050919050565b7f496e76616c6964207374616b696e6700000000000000000000000000000000005f82015250565b5f612c7f600f8361207a565b9150612c8a82612c4b565b602082019050919050565b5f6020820190508181035f830152612cac81612c73565b9050919050565b7f5072696365203e203000000000000000000000000000000000000000000000005f82015250565b5f612ce760098361207a565b9150612cf282612cb3565b602082019050919050565b5f6020820190508181035f830152612d1481612cdb565b9050919050565b5f819050919050565b5f612d3e612d39612d3484612d1b565b611ec0565b611e4f565b9050919050565b612d4e81612d24565b82525050565b5f604082019050612d675f830185611faf565b612d746020830184612d45565b939250505056fea26469706673582212206f2e744d02a24cbe560805d1135eb3fe921ae7b014be43cbe49d78447bbb91b864736f6c634300081a0033",
  "linkReferences": {},
  "deployedLinkReferences": {}
}