{
  "_format": "hh-sol-artifact-1",
  "contractName": "ICOContract",
  "sourceName": "contracts/IcoContract.sol",
  "abi": [
    {
      "inputs": [
        {
          "internalType": "address[]",
          "name": "_paymentTokens",
          "type": "address[]"
        },
        {
          "internalType": "address",
          "name": "_icoToken",
          "type": "address"
        },
        {
          "internalType": "uint256",
          "name": "_tokenPrice",
          "type": "uint256"
        },
        {
          "internalType": "address",
          "name": "_adminManager",
          "type": "address"
        }
      ],
      "stateMutability": "nonpayable",
      "type": "constructor"
    },
    {
      "anonymous": false,
      "inputs": [
        {
          "indexed": false,
          "internalType": "uint256",
          "name": "tokenAmount",
          "type": "uint256"
        }
      ],
      "name": "EmergencyWithdraw",
      "type": "event"
    },
    {
      "anonymous": false,
      "inputs": [
        {
          "indexed": false,
          "internalType": "address",
          "name": "token",
          "type": "address"
        },
        {
          "indexed": false,
          "internalType": "bool",
          "name": "allowed",
          "type": "bool"
        }
      ],
      "name": "PaymentTokenAllowed",
      "type": "event"
    },
    {
      "anonymous": false,
      "inputs": [
        {
          "indexed": true,
          "internalType": "address",
          "name": "receiver",
          "type": "address"
        },
        {
          "indexed": false,
          "internalType": "uint256",
          "name": "index",
          "type": "uint256"
        }
      ],
      "name": "ReceiverAdded",
      "type": "event"
    },
    {
      "anonymous": false,
      "inputs": [],
      "name": "ReceiverListCleared",
      "type": "event"
    },
    {
      "anonymous": false,
      "inputs": [
        {
          "indexed": true,
          "internalType": "address",
          "name": "receiver",
          "type": "address"
        }
      ],
      "name": "ReceiverRemoved",
      "type": "event"
    },
    {
      "anonymous": false,
      "inputs": [
        {
          "indexed": false,
          "internalType": "uint256",
          "name": "newPercent",
          "type": "uint256"
        }
      ],
      "name": "RewardPercentUpdated",
      "type": "event"
    },
    {
      "anonymous": false,
      "inputs": [
        {
          "indexed": true,
          "internalType": "address",
          "name": "staking",
          "type": "address"
        }
      ],
      "name": "StakingContractSet",
      "type": "event"
    },
    {
      "anonymous": false,
      "inputs": [
        {
          "indexed": true,
          "internalType": "address",
          "name": "buyer",
          "type": "address"
        },
        {
          "indexed": false,
          "internalType": "uint256",
          "name": "tokensBought",
          "type": "uint256"
        },
        {
          "indexed": false,
          "internalType": "uint256",
          "name": "reward",
          "type": "uint256"
        },
        {
          "indexed": false,
          "internalType": "uint256",
          "name": "paymentAmount",
          "type": "uint256"
        },
        {
          "indexed": false,
          "internalType": "address",
          "name": "paymentToken",
          "type": "address"
        }
      ],
      "name": "TokensPurchased",
      "type": "event"
    },
    {
      "anonymous": false,
      "inputs": [
        {
          "indexed": true,
          "internalType": "address",
          "name": "admin",
          "type": "address"
        },
        {
          "indexed": false,
          "internalType": "uint256",
          "name": "amount",
          "type": "uint256"
        }
      ],
      "name": "TokensWithdrawn",
      "type": "event"
    },
    {
      "inputs": [
        {
          "internalType": "address",
          "name": "token",
          "type": "address"
        }
      ],
      "name": "addPaymentToken",
      "outputs": [],
      "stateMutability": "nonpayable",
      "type": "function"
    },
    {
      "inputs": [
        {
          "internalType": "address",
          "name": "_receiver",
          "type": "address"
        }
      ],
      "name": "addReceiver",
      "outputs": [],
      "stateMutability": "nonpayable",
      "type": "function"
    },
    {
      "inputs": [],
      "name": "adminManager",
      "outputs": [
        {
          "internalType": "contract AdminManager",
          "name": "",
          "type": "address"
        }
      ],
      "stateMutability": "view",
      "type": "function"
    },
    {
      "inputs": [
        {
          "internalType": "address",
          "name": "",
          "type": "address"
        }
      ],
      "name": "allowedPaymentTokens",
      "outputs": [
        {
          "internalType": "bool",
          "name": "",
          "type": "bool"
        }
      ],
      "stateMutability": "view",
      "type": "function"
    },
    {
      "inputs": [
        {
          "internalType": "address",
          "name": "paymentTokenAddr",
          "type": "address"
        },
        {
          "internalType": "uint256",
          "name": "_paymentAmount",
          "type": "uint256"
        }
      ],
      "name": "buyTokens",
      "outputs": [],
      "stateMutability": "nonpayable",
      "type": "function"
    },
    {
      "inputs": [],
      "name": "clearReceivers",
      "outputs": [],
      "stateMutability": "nonpayable",
      "type": "function"
    },
    {
      "inputs": [],
      "name": "currentReceiverIndex",
      "outputs": [
        {
          "internalType": "uint256",
          "name": "",
          "type": "uint256"
        }
      ],
      "stateMutability": "view",
      "type": "function"
    },
    {
      "inputs": [],
      "name": "emergencyWithdraw",
      "outputs": [],
      "stateMutability": "nonpayable",
      "type": "function"
    },
    {
      "inputs": [],
      "name": "getReceivers",
      "outputs": [
        {
          "internalType": "address[]",
          "name": "",
          "type": "address[]"
        }
      ],
      "stateMutability": "view",
      "type": "function"
    },
    {
      "inputs": [],
      "name": "getTokenBalance",
      "outputs": [
        {
          "internalType": "uint256",
          "name": "",
          "type": "uint256"
        }
      ],
      "stateMutability": "view",
      "type": "function"
    },
    {
      "inputs": [
        {
          "internalType": "address",
          "name": "tokenAddr",
          "type": "address"
        }
      ],
      "name": "getTokenBalanceOf",
      "outputs": [
        {
          "internalType": "uint256",
          "name": "",
          "type": "uint256"
        }
      ],
      "stateMutability": "view",
      "type": "function"
    },
    {
      "inputs": [],
      "name": "icoToken",
      "outputs": [
        {
          "internalType": "contract IERC20",
          "name": "",
          "type": "address"
        }
      ],
      "stateMutability": "view",
      "type": "function"
    },
    {
      "inputs": [
        {
          "internalType": "bool",
          "name": "_pause",
          "type": "bool"
        }
      ],
      "name": "pause",
      "outputs": [],
      "stateMutability": "nonpayable",
      "type": "function"
    },
    {
      "inputs": [],
      "name": "paused",
      "outputs": [
        {
          "internalType": "bool",
          "name": "",
          "type": "bool"
        }
      ],
      "stateMutability": "view",
      "type": "function"
    },
    {
      "inputs": [],
      "name": "priceDecimals",
      "outputs": [
        {
          "internalType": "uint8",
          "name": "",
          "type": "uint8"
        }
      ],
      "stateMutability": "view",
      "type": "function"
    },
    {
      "inputs": [
        {
          "internalType": "uint256",
          "name": "",
          "type": "uint256"
        }
      ],
      "name": "receivers",
      "outputs": [
        {
          "internalType": "address",
          "name": "",
          "type": "address"
        }
      ],
      "stateMutability": "view",
      "type": "function"
    },
    {
      "inputs": [
        {
          "internalType": "address",
          "name": "token",
          "type": "address"
        }
      ],
      "name": "removePaymentToken",
      "outputs": [],
      "stateMutability": "nonpayable",
      "type": "function"
    },
    {
      "inputs": [
        {
          "internalType": "uint256",
          "name": "index",
          "type": "uint256"
        }
      ],
      "name": "removeReceiver",
      "outputs": [],
      "stateMutability": "nonpayable",
      "type": "function"
    },
    {
      "inputs": [],
      "name": "rewardPercent",
      "outputs": [
        {
          "internalType": "uint256",
          "name": "",
          "type": "uint256"
        }
      ],
      "stateMutability": "view",
      "type": "function"
    },
    {
      "inputs": [
        {
          "internalType": "uint256",
          "name": "_percent",
          "type": "uint256"
        }
      ],
      "name": "setRewardPercent",
      "outputs": [],
      "stateMutability": "nonpayable",
      "type": "function"
    },
    {
      "inputs": [
        {
          "internalType": "uint256",
          "name": "_percent",
          "type": "uint256"
        }
      ],
      "name": "setRewardPercentFromStaking",
      "outputs": [],
      "stateMutability": "nonpayable",
      "type": "function"
    },
    {
      "inputs": [
        {
          "internalType": "address",
          "name": "_staking",
          "type": "address"
        }
      ],
      "name": "setStakingContract",
      "outputs": [],
      "stateMutability": "nonpayable",
      "type": "function"
    },
    {
      "inputs": [
        {
          "internalType": "uint256",
          "name": "_newPrice",
          "type": "uint256"
        }
      ],
      "name": "setTokenPriceFromStaking",
      "outputs": [],
      "stateMutability": "nonpayable",
      "type": "function"
    },
    {
      "inputs": [],
      "name": "stakingContract",
      "outputs": [
        {
          "internalType": "address",
          "name": "",
          "type": "address"
        }
      ],
      "stateMutability": "view",
      "type": "function"
    },
    {
      "inputs": [],
      "name": "superAdmin",
      "outputs": [
        {
          "internalType": "address",
          "name": "",
          "type": "address"
        }
      ],
      "stateMutability": "view",
      "type": "function"
    },
    {
      "inputs": [],
      "name": "tokenPrice",
      "outputs": [
        {
          "internalType": "uint256",
          "name": "",
          "type": "uint256"
        }
      ],
      "stateMutability": "view",
      "type": "function"
    },
    {
      "inputs": [],
      "name": "totalTokensSold",
      "outputs": [
        {
          "internalType": "uint256",
          "name": "",
          "type": "uint256"
        }
      ],
      "stateMutability": "view",
      "type": "function"
    },
    {
      "inputs": [
        {
          "internalType": "uint256",
          "name": "_newPrice",
          "type": "uint256"
        }
      ],
      "name": "updateTokenPrice",
      "outputs": [],
      "stateMutability": "nonpayable",
      "type": "function"
    },
    {
      "inputs": [
        {
          "internalType": "uint256",
          "name": "_newPrice",
          "type": "uint256"
        }
      ],
      "name": "updateTokenPriceFromStaking",
      "outputs": [],
      "stateMutability": "nonpayable",
      "type": "function"
    },
    {
      "inputs": [
        {
          "internalType": "uint256",
          "name": "_amount",
          "type": "uint256"
        }
      ],
      "name": "withdrawRemainingTokens",
      "outputs": [],
      "stateMutability": "nonpayable",
      "type": "function"
    }
  ],
  "bytecode": "6080604052600660045f6101000a81548160ff021916908360ff160217905550600160055534801561002f575f80fd5b506040516140ae3803806140ae83398181016040528101906100519190610555565b5f73ffffffffffffffffffffffffffffffffffffffff168373ffffffffffffffffffffffffffffffffffffffff16036100bf576040517f08c379a00000000000000000000000000000000000000000000000000000000081526004016100b69061062f565b60405180910390fd5b5f73ffffffffffffffffffffffffffffffffffffffff168173ffffffffffffffffffffffffffffffffffffffff160361012d576040517f08c379a000000000000000000000000000000000000000000000000000000000815260040161012490610697565b60405180910390fd5b5f821161016f576040517f08c379a0000000000000000000000000000000000000000000000000000000008152600401610166906106ff565b60405180910390fd5b335f806101000a81548173ffffffffffffffffffffffffffffffffffffffff021916908373ffffffffffffffffffffffffffffffffffffffff1602179055505f5b84518110156102d6575f73ffffffffffffffffffffffffffffffffffffffff168582815181106101e3576101e261071d565b5b602002602001015173ffffffffffffffffffffffffffffffffffffffff16146102c9576001805f87848151811061021d5761021c61071d565b5b602002602001015173ffffffffffffffffffffffffffffffffffffffff1673ffffffffffffffffffffffffffffffffffffffff1681526020019081526020015f205f6101000a81548160ff0219169083151502179055507f44fd9e401d43b510a520ef2a3cee9de208a5ee753db6e62ed7b96714290e81e08582815181106102a8576102a761071d565b5b602002602001015160016040516102c0929190610773565b60405180910390a15b80806001019150506101b0565b508260025f6101000a81548173ffffffffffffffffffffffffffffffffffffffff021916908373ffffffffffffffffffffffffffffffffffffffff160217905550816003819055508060065f6101000a81548173ffffffffffffffffffffffffffffffffffffffff021916908373ffffffffffffffffffffffffffffffffffffffff1602179055505050505061079a565b5f604051905090565b5f80fd5b5f80fd5b5f80fd5b5f601f19601f8301169050919050565b7f4e487b71000000000000000000000000000000000000000000000000000000005f52604160045260245ffd5b6103c28261037c565b810181811067ffffffffffffffff821117156103e1576103e061038c565b5b80604052505050565b5f6103f3610367565b90506103ff82826103b9565b919050565b5f67ffffffffffffffff82111561041e5761041d61038c565b5b602082029050602081019050919050565b5f80fd5b5f73ffffffffffffffffffffffffffffffffffffffff82169050919050565b5f61045c82610433565b9050919050565b61046c81610452565b8114610476575f80fd5b50565b5f8151905061048781610463565b92915050565b5f61049f61049a84610404565b6103ea565b905080838252602082019050602084028301858111156104c2576104c161042f565b5b835b818110156104eb57806104d78882610479565b8452602084019350506020810190506104c4565b5050509392505050565b5f82601f83011261050957610508610378565b5b815161051984826020860161048d565b91505092915050565b5f819050919050565b61053481610522565b811461053e575f80fd5b50565b5f8151905061054f8161052b565b92915050565b5f805f806080858703121561056d5761056c610370565b5b5f85015167ffffffffffffffff81111561058a57610589610374565b5b610596878288016104f5565b94505060206105a787828801610479565b93505060406105b887828801610541565b92505060606105c987828801610479565b91505092959194509250565b5f82825260208201905092915050565b7f496e76616c69642049434f20746f6b656e0000000000000000000000000000005f82015250565b5f6106196011836105d5565b9150610624826105e5565b602082019050919050565b5f6020820190508181035f8301526106468161060d565b9050919050565b7f496e76616c69642061646d696e206d616e6167657200000000000000000000005f82015250565b5f6106816015836105d5565b915061068c8261064d565b602082019050919050565b5f6020820190508181035f8301526106ae81610675565b9050919050565b7f5072696365206d757374203e20300000000000000000000000000000000000005f82015250565b5f6106e9600e836105d5565b91506106f4826106b5565b602082019050919050565b5f6020820190508181035f830152610716816106dd565b9050919050565b7f4e487b71000000000000000000000000000000000000000000000000000000005f52603260045260245ffd5b61075381610452565b82525050565b5f8115159050919050565b61076d81610759565b82525050565b5f6040820190506107865f83018561074a565b6107936020830184610764565b9392505050565b613907806107a75f395ff3fe608060405234801561000f575f80fd5b50600436106101d8575f3560e01c80637ff9b59611610102578063af056847116100a0578063d03020511161006f578063d0302051146104f0578063db2e21bc1461050e578063e061646b14610518578063ee99205c14610536576101d8565b8063af0568471461046c578063bfd772fc14610488578063c1c5dd27146104b8578063cfe20d4d146104d4576101d8565b8063867d0cdd116100dc578063867d0cdd146103fa5780639dd373b914610416578063a210b6a414610432578063a512542114610450576101d8565b80637ff9b5961461038e57806382b2e257146103ac57806383894548146103ca576101d8565b80634a7dc8e01161017a578063676c0d7711610149578063676c0d771461030a578063697d312a1461032657806369d83ed1146103565780637052dad914610372576101d8565b80634a7dc8e0146102a85780635c975abb146102c457806363369f8b146102e257806363b20117146102ec576101d8565b80631d6c94b3116101b65780631d6c94b314610232578063260c2cec1461024e57806329575f6a1461026c5780632d95663b1461028a576101d8565b806302329a29146101dc57806305300b28146101f85780630752881a14610216575b5f80fd5b6101f660048036038101906101f191906127f0565b610554565b005b610200610648565b60405161020d9190612836565b60405180910390f35b610230600480360381019061022b91906128dc565b61065a565b005b61024c6004803603810190610247919061291a565b610dd9565b005b610256610eb5565b60405161026391906129a0565b60405180910390f35b610274610eda565b60405161028191906129c8565b60405180910390f35b610292610efd565b60405161029f91906129f0565b60405180910390f35b6102c260048036038101906102bd9190612a09565b610f03565b005b6102cc6110da565b6040516102d99190612a43565b60405180910390f35b6102ea6110ec565b005b6102f4611206565b60405161030191906129f0565b60405180910390f35b610324600480360381019061031f919061291a565b61120c565b005b610340600480360381019061033b9190612a09565b611330565b60405161034d9190612a43565b60405180910390f35b610370600480360381019061036b9190612a09565b61134d565b005b61038c6004803603810190610387919061291a565b611555565b005b610396611872565b6040516103a391906129f0565b60405180910390f35b6103b4611878565b6040516103c191906129f0565b60405180910390f35b6103e460048036038101906103df9190612a09565b611917565b6040516103f191906129f0565b60405180910390f35b610414600480360381019061040f919061291a565b611997565b005b610430600480360381019061042b9190612a09565b611aac565b005b61043a611c79565b6040516104479190612a7c565b60405180910390f35b61046a60048036038101906104659190612a09565b611c9e565b005b6104866004803603810190610481919061291a565b611e74565b005b6104a2600480360381019061049d919061291a565b61212b565b6040516104af91906129c8565b60405180910390f35b6104d260048036038101906104cd919061291a565b612166565b005b6104ee60048036038101906104e9919061291a565b6122c3565b005b6104f861239f565b60405161050591906129f0565b60405180910390f35b6105166123a5565b005b610520612618565b60405161052d9190612b4c565b60405180910390f35b61053e6126a3565b60405161054b91906129c8565b60405180910390f35b60065f9054906101000a900473ffffffffffffffffffffffffffffffffffffffff1673ffffffffffffffffffffffffffffffffffffffff166324d7806c336040518263ffffffff1660e01b81526004016105ae91906129c8565b602060405180830381865afa1580156105c9573d5f803e3d5ffd5b505050506040513d601f19601f820116820180604052508101906105ed9190612b80565b61062c576040517f08c379a000000000000000000000000000000000000000000000000000000000815260040161062390612c05565b60405180910390fd5b8060085f6101000a81548160ff02191690831515021790555050565b60045f9054906101000a900460ff1681565b60085f9054906101000a900460ff16156106a9576040517f08c379a00000000000000000000000000000000000000000000000000000000081526004016106a090612c6d565b60405180910390fd5b5f81116106eb576040517f08c379a00000000000000000000000000000000000000000000000000000000081526004016106e290612cd5565b60405180910390fd5b60015f8373ffffffffffffffffffffffffffffffffffffffff1673ffffffffffffffffffffffffffffffffffffffff1681526020019081526020015f205f9054906101000a900460ff16610774576040517f08c379a000000000000000000000000000000000000000000000000000000000815260040161076b90612d3d565b60405180910390fd5b5f8290505f8173ffffffffffffffffffffffffffffffffffffffff1663313ce5676040518163ffffffff1660e01b8152600401602060405180830381865afa1580156107c2573d5f803e3d5ffd5b505050506040513d601f19601f820116820180604052508101906107e69190612d85565b90505f60025f9054906101000a900473ffffffffffffffffffffffffffffffffffffffff1673ffffffffffffffffffffffffffffffffffffffff1663313ce5676040518163ffffffff1660e01b8152600401602060405180830381865afa158015610853573d5f803e3d5ffd5b505050506040513d601f19601f820116820180604052508101906108779190612d85565b90505f82600a6108879190612f0c565b60045f9054906101000a900460ff16600a6108a29190612f0c565b866108ad9190612f56565b6108b79190612fc4565b90505f60035483600a6108ca9190612f0c565b836108d59190612f56565b6108df9190612fc4565b90505f8111610923576040517f08c379a000000000000000000000000000000000000000000000000000000000815260040161091a9061303e565b60405180910390fd5b8060025f9054906101000a900473ffffffffffffffffffffffffffffffffffffffff1673ffffffffffffffffffffffffffffffffffffffff166370a08231306040518263ffffffff1660e01b815260040161097e91906129c8565b602060405180830381865afa158015610999573d5f803e3d5ffd5b505050506040513d601f19601f820116820180604052508101906109bd9190613070565b10156109fe576040517f08c379a00000000000000000000000000000000000000000000000000000000081526004016109f5906130e5565b60405180910390fd5b8473ffffffffffffffffffffffffffffffffffffffff166323b872dd3330896040518463ffffffff1660e01b8152600401610a3b93929190613103565b6020604051808303815f875af1158015610a57573d5f803e3d5ffd5b505050506040513d601f19601f82011682018060405250810190610a7b9190612b80565b610aba576040517f08c379a0000000000000000000000000000000000000000000000000000000008152600401610ab190613182565b60405180910390fd5b5f610ac36126c9565b90508573ffffffffffffffffffffffffffffffffffffffff1663a9059cbb82896040518363ffffffff1660e01b8152600401610b009291906131a0565b6020604051808303815f875af1158015610b1c573d5f803e3d5ffd5b505050506040513d601f19601f82011682018060405250810190610b409190612b80565b610b7f576040517f08c379a0000000000000000000000000000000000000000000000000000000008152600401610b7690613211565b60405180910390fd5b5f606460055484610b909190612f56565b610b9a9190612fc4565b90505f8184610ba9919061322f565b90508060025f9054906101000a900473ffffffffffffffffffffffffffffffffffffffff1673ffffffffffffffffffffffffffffffffffffffff166370a08231306040518263ffffffff1660e01b8152600401610c0691906129c8565b602060405180830381865afa158015610c21573d5f803e3d5ffd5b505050506040513d601f19601f82011682018060405250810190610c459190613070565b1015610c86576040517f08c379a0000000000000000000000000000000000000000000000000000000008152600401610c7d906132ac565b60405180910390fd5b60025f9054906101000a900473ffffffffffffffffffffffffffffffffffffffff1673ffffffffffffffffffffffffffffffffffffffff1663a9059cbb33836040518363ffffffff1660e01b8152600401610ce29291906131a0565b6020604051808303815f875af1158015610cfe573d5f803e3d5ffd5b505050506040513d601f19601f82011682018060405250810190610d229190612b80565b610d61576040517f08c379a0000000000000000000000000000000000000000000000000000000008152600401610d5890613314565b60405180910390fd5b8060075f828254610d72919061322f565b925050819055503373ffffffffffffffffffffffffffffffffffffffff167fd5249cada4fc3ed9e82bbb9f9418330de80562be437eb6666d415c9216fe7d9d85848c8e604051610dc59493929190613332565b60405180910390a250505050505050505050565b600860019054906101000a900473ffffffffffffffffffffffffffffffffffffffff1673ffffffffffffffffffffffffffffffffffffffff163373ffffffffffffffffffffffffffffffffffffffff1614610e69576040517f08c379a0000000000000000000000000000000000000000000000000000000008152600401610e60906133bf565b60405180910390fd5b5f8111610eab576040517f08c379a0000000000000000000000000000000000000000000000000000000008152600401610ea290613427565b60405180910390fd5b8060038190555050565b60025f9054906101000a900473ffffffffffffffffffffffffffffffffffffffff1681565b5f8054906101000a900473ffffffffffffffffffffffffffffffffffffffff1681565b600a5481565b60065f9054906101000a900473ffffffffffffffffffffffffffffffffffffffff1673ffffffffffffffffffffffffffffffffffffffff166324d7806c336040518263ffffffff1660e01b8152600401610f5d91906129c8565b602060405180830381865afa158015610f78573d5f803e3d5ffd5b505050506040513d601f19601f82011682018060405250810190610f9c9190612b80565b610fdb576040517f08c379a0000000000000000000000000000000000000000000000000000000008152600401610fd290612c05565b60405180910390fd5b5f73ffffffffffffffffffffffffffffffffffffffff168173ffffffffffffffffffffffffffffffffffffffff1603611049576040517f08c379a00000000000000000000000000000000000000000000000000000000081526004016110409061348f565b60405180910390fd5b6001805f8373ffffffffffffffffffffffffffffffffffffffff1673ffffffffffffffffffffffffffffffffffffffff1681526020019081526020015f205f6101000a81548160ff0219169083151502179055507f44fd9e401d43b510a520ef2a3cee9de208a5ee753db6e62ed7b96714290e81e08160016040516110cf9291906134ad565b60405180910390a150565b60085f9054906101000a900460ff1681565b60065f9054906101000a900473ffffffffffffffffffffffffffffffffffffffff1673ffffffffffffffffffffffffffffffffffffffff166324d7806c336040518263ffffffff1660e01b815260040161114691906129c8565b602060405180830381865afa158015611161573d5f803e3d5ffd5b505050506040513d601f19601f820116820180604052508101906111859190612b80565b6111c4576040517f08c379a00000000000000000000000000000000000000000000000000000000081526004016111bb90612c05565b60405180910390fd5b60095f6111d1919061277e565b5f600a819055507fc995c4dd418a7c0e3b804654f43facaa25eb7fd330dbc138d215f90a05c6c26060405160405180910390a1565b60075481565b60065f9054906101000a900473ffffffffffffffffffffffffffffffffffffffff1673ffffffffffffffffffffffffffffffffffffffff166324d7806c336040518263ffffffff1660e01b815260040161126691906129c8565b602060405180830381865afa158015611281573d5f803e3d5ffd5b505050506040513d601f19601f820116820180604052508101906112a59190612b80565b6112e4576040517f08c379a00000000000000000000000000000000000000000000000000000000081526004016112db90612c05565b60405180910390fd5b5f8111611326576040517f08c379a000000000000000000000000000000000000000000000000000000000815260040161131d90613427565b60405180910390fd5b8060038190555050565b6001602052805f5260405f205f915054906101000a900460ff1681565b60065f9054906101000a900473ffffffffffffffffffffffffffffffffffffffff1673ffffffffffffffffffffffffffffffffffffffff166324d7806c336040518263ffffffff1660e01b81526004016113a791906129c8565b602060405180830381865afa1580156113c2573d5f803e3d5ffd5b505050506040513d601f19601f820116820180604052508101906113e69190612b80565b611425576040517f08c379a000000000000000000000000000000000000000000000000000000000815260040161141c90612c05565b60405180910390fd5b5f73ffffffffffffffffffffffffffffffffffffffff168173ffffffffffffffffffffffffffffffffffffffff1603611493576040517f08c379a000000000000000000000000000000000000000000000000000000000815260040161148a9061351e565b60405180910390fd5b600981908060018154018082558091505060019003905f5260205f20015f9091909190916101000a81548173ffffffffffffffffffffffffffffffffffffffff021916908373ffffffffffffffffffffffffffffffffffffffff1602179055508073ffffffffffffffffffffffffffffffffffffffff167fcc5646d2b5056370ad8ab59b52dc4674e8de23cbfb0e4c329066867a28ea00bf600160098054905061153d919061353c565b60405161154a91906129f0565b60405180910390a250565b60065f9054906101000a900473ffffffffffffffffffffffffffffffffffffffff1673ffffffffffffffffffffffffffffffffffffffff166324d7806c336040518263ffffffff1660e01b81526004016115af91906129c8565b602060405180830381865afa1580156115ca573d5f803e3d5ffd5b505050506040513d601f19601f820116820180604052508101906115ee9190612b80565b61162d576040517f08c379a000000000000000000000000000000000000000000000000000000000815260040161162490612c05565b60405180910390fd5b8060025f9054906101000a900473ffffffffffffffffffffffffffffffffffffffff1673ffffffffffffffffffffffffffffffffffffffff166370a08231306040518263ffffffff1660e01b815260040161168891906129c8565b602060405180830381865afa1580156116a3573d5f803e3d5ffd5b505050506040513d601f19601f820116820180604052508101906116c79190613070565b1015611708576040517f08c379a00000000000000000000000000000000000000000000000000000000081526004016116ff906135b9565b60405180910390fd5b60025f9054906101000a900473ffffffffffffffffffffffffffffffffffffffff1673ffffffffffffffffffffffffffffffffffffffff1663a9059cbb5f8054906101000a900473ffffffffffffffffffffffffffffffffffffffff16836040518363ffffffff1660e01b81526004016117839291906131a0565b6020604051808303815f875af115801561179f573d5f803e3d5ffd5b505050506040513d601f19601f820116820180604052508101906117c39190612b80565b611802576040517f08c379a00000000000000000000000000000000000000000000000000000000081526004016117f990613621565b60405180910390fd5b5f8054906101000a900473ffffffffffffffffffffffffffffffffffffffff1673ffffffffffffffffffffffffffffffffffffffff167f6352c5382c4a4578e712449ca65e83cdb392d045dfcf1cad9615189db2da244b8260405161186791906129f0565b60405180910390a250565b60035481565b5f60025f9054906101000a900473ffffffffffffffffffffffffffffffffffffffff1673ffffffffffffffffffffffffffffffffffffffff166370a08231306040518263ffffffff1660e01b81526004016118d391906129c8565b602060405180830381865afa1580156118ee573d5f803e3d5ffd5b505050506040513d601f19601f820116820180604052508101906119129190613070565b905090565b5f8173ffffffffffffffffffffffffffffffffffffffff166370a08231306040518263ffffffff1660e01b815260040161195191906129c8565b602060405180830381865afa15801561196c573d5f803e3d5ffd5b505050506040513d601f19601f820116820180604052508101906119909190613070565b9050919050565b600860019054906101000a900473ffffffffffffffffffffffffffffffffffffffff1673ffffffffffffffffffffffffffffffffffffffff163373ffffffffffffffffffffffffffffffffffffffff1614611a27576040517f08c379a0000000000000000000000000000000000000000000000000000000008152600401611a1e906133bf565b60405180910390fd5b6064811115611a6b576040517f08c379a0000000000000000000000000000000000000000000000000000000008152600401611a6290613689565b60405180910390fd5b806005819055507ff85fe1c18047489ac83fd666cfe9bc5c101b62f21eac46ee6e22979d12d1ec6e81604051611aa191906129f0565b60405180910390a150565b60065f9054906101000a900473ffffffffffffffffffffffffffffffffffffffff1673ffffffffffffffffffffffffffffffffffffffff166324d7806c336040518263ffffffff1660e01b8152600401611b0691906129c8565b602060405180830381865afa158015611b21573d5f803e3d5ffd5b505050506040513d601f19601f82011682018060405250810190611b459190612b80565b611b84576040517f08c379a0000000000000000000000000000000000000000000000000000000008152600401611b7b90612c05565b60405180910390fd5b5f73ffffffffffffffffffffffffffffffffffffffff168173ffffffffffffffffffffffffffffffffffffffff1603611bf2576040517f08c379a0000000000000000000000000000000000000000000000000000000008152600401611be9906136f1565b60405180910390fd5b80600860016101000a81548173ffffffffffffffffffffffffffffffffffffffff021916908373ffffffffffffffffffffffffffffffffffffffff1602179055508073ffffffffffffffffffffffffffffffffffffffff167f1253844b0fff3da7dd2829de816c9b4f94c238cf2bf6eb72c02c7d6f2b53beac60405160405180910390a250565b60065f9054906101000a900473ffffffffffffffffffffffffffffffffffffffff1681565b60065f9054906101000a900473ffffffffffffffffffffffffffffffffffffffff1673ffffffffffffffffffffffffffffffffffffffff166324d7806c336040518263ffffffff1660e01b8152600401611cf891906129c8565b602060405180830381865afa158015611d13573d5f803e3d5ffd5b505050506040513d601f19601f82011682018060405250810190611d379190612b80565b611d76576040517f08c379a0000000000000000000000000000000000000000000000000000000008152600401611d6d90612c05565b60405180910390fd5b5f73ffffffffffffffffffffffffffffffffffffffff168173ffffffffffffffffffffffffffffffffffffffff1603611de4576040517f08c379a0000000000000000000000000000000000000000000000000000000008152600401611ddb9061348f565b60405180910390fd5b5f60015f8373ffffffffffffffffffffffffffffffffffffffff1673ffffffffffffffffffffffffffffffffffffffff1681526020019081526020015f205f6101000a81548160ff0219169083151502179055507f44fd9e401d43b510a520ef2a3cee9de208a5ee753db6e62ed7b96714290e81e0815f604051611e699291906134ad565b60405180910390a150565b60065f9054906101000a900473ffffffffffffffffffffffffffffffffffffffff1673ffffffffffffffffffffffffffffffffffffffff166324d7806c336040518263ffffffff1660e01b8152600401611ece91906129c8565b602060405180830381865afa158015611ee9573d5f803e3d5ffd5b505050506040513d601f19601f82011682018060405250810190611f0d9190612b80565b611f4c576040517f08c379a0000000000000000000000000000000000000000000000000000000008152600401611f4390612c05565b60405180910390fd5b6009805490508110611f93576040517f08c379a0000000000000000000000000000000000000000000000000000000008152600401611f8a90613759565b60405180910390fd5b5f60098281548110611fa857611fa7613777565b5b905f5260205f20015f9054906101000a900473ffffffffffffffffffffffffffffffffffffffff16905060096001600980549050611fe6919061353c565b81548110611ff757611ff6613777565b5b905f5260205f20015f9054906101000a900473ffffffffffffffffffffffffffffffffffffffff166009838154811061203357612032613777565b5b905f5260205f20015f6101000a81548173ffffffffffffffffffffffffffffffffffffffff021916908373ffffffffffffffffffffffffffffffffffffffff160217905550600980548061208a576120896137a4565b5b600190038181905f5260205f20015f6101000a81549073ffffffffffffffffffffffffffffffffffffffff021916905590558073ffffffffffffffffffffffffffffffffffffffff167f2771977f239a332de92ab37b7275685268f164e51cda8f1356692695f4708f2f60405160405180910390a2600980549050600a541015801561211a57505f600980549050115b15612127575f600a819055505b5050565b6009818154811061213a575f80fd5b905f5260205f20015f915054906101000a900473ffffffffffffffffffffffffffffffffffffffff1681565b60065f9054906101000a900473ffffffffffffffffffffffffffffffffffffffff1673ffffffffffffffffffffffffffffffffffffffff166324d7806c336040518263ffffffff1660e01b81526004016121c091906129c8565b602060405180830381865afa1580156121db573d5f803e3d5ffd5b505050506040513d601f19601f820116820180604052508101906121ff9190612b80565b61223e576040517f08c379a000000000000000000000000000000000000000000000000000000000815260040161223590612c05565b60405180910390fd5b6064811115612282576040517f08c379a000000000000000000000000000000000000000000000000000000000815260040161227990613689565b60405180910390fd5b806005819055507ff85fe1c18047489ac83fd666cfe9bc5c101b62f21eac46ee6e22979d12d1ec6e816040516122b891906129f0565b60405180910390a150565b600860019054906101000a900473ffffffffffffffffffffffffffffffffffffffff1673ffffffffffffffffffffffffffffffffffffffff163373ffffffffffffffffffffffffffffffffffffffff1614612353576040517f08c379a000000000000000000000000000000000000000000000000000000000815260040161234a906133bf565b60405180910390fd5b5f8111612395576040517f08c379a000000000000000000000000000000000000000000000000000000000815260040161238c9061381b565b60405180910390fd5b8060038190555050565b60055481565b60065f9054906101000a900473ffffffffffffffffffffffffffffffffffffffff1673ffffffffffffffffffffffffffffffffffffffff166324d7806c336040518263ffffffff1660e01b81526004016123ff91906129c8565b602060405180830381865afa15801561241a573d5f803e3d5ffd5b505050506040513d601f19601f8201168201806040525081019061243e9190612b80565b61247d576040517f08c379a000000000000000000000000000000000000000000000000000000000815260040161247490612c05565b60405180910390fd5b5f60025f9054906101000a900473ffffffffffffffffffffffffffffffffffffffff1673ffffffffffffffffffffffffffffffffffffffff166370a08231306040518263ffffffff1660e01b81526004016124d891906129c8565b602060405180830381865afa1580156124f3573d5f803e3d5ffd5b505050506040513d601f19601f820116820180604052508101906125179190613070565b90505f8111156125de5760025f9054906101000a900473ffffffffffffffffffffffffffffffffffffffff1673ffffffffffffffffffffffffffffffffffffffff1663a9059cbb5f8054906101000a900473ffffffffffffffffffffffffffffffffffffffff16836040518363ffffffff1660e01b815260040161259c9291906131a0565b6020604051808303815f875af11580156125b8573d5f803e3d5ffd5b505050506040513d601f19601f820116820180604052508101906125dc9190612b80565b505b7f99d7f8b71cfb9126984f7a5eed3a40e64a8959e9b0e442221546fb04ec6a489c8160405161260d91906129f0565b60405180910390a150565b6060600980548060200260200160405190810160405280929190818152602001828054801561269957602002820191905f5260205f20905b815f9054906101000a900473ffffffffffffffffffffffffffffffffffffffff1673ffffffffffffffffffffffffffffffffffffffff1681526020019060010190808311612650575b5050505050905090565b600860019054906101000a900473ffffffffffffffffffffffffffffffffffffffff1681565b5f8060098054905011612711576040517f08c379a000000000000000000000000000000000000000000000000000000000815260040161270890613883565b60405180910390fd5b5f6009600a548154811061272857612727613777565b5b905f5260205f20015f9054906101000a900473ffffffffffffffffffffffffffffffffffffffff1690506009805490506001600a54612767919061322f565b61277191906138a1565b600a819055508091505090565b5080545f8255905f5260205f2090810190612799919061279c565b50565b5b808211156127b3575f815f90555060010161279d565b5090565b5f80fd5b5f8115159050919050565b6127cf816127bb565b81146127d9575f80fd5b50565b5f813590506127ea816127c6565b92915050565b5f60208284031215612805576128046127b7565b5b5f612812848285016127dc565b91505092915050565b5f60ff82169050919050565b6128308161281b565b82525050565b5f6020820190506128495f830184612827565b92915050565b5f73ffffffffffffffffffffffffffffffffffffffff82169050919050565b5f6128788261284f565b9050919050565b6128888161286e565b8114612892575f80fd5b50565b5f813590506128a38161287f565b92915050565b5f819050919050565b6128bb816128a9565b81146128c5575f80fd5b50565b5f813590506128d6816128b2565b92915050565b5f80604083850312156128f2576128f16127b7565b5b5f6128ff85828601612895565b9250506020612910858286016128c8565b9150509250929050565b5f6020828403121561292f5761292e6127b7565b5b5f61293c848285016128c8565b91505092915050565b5f819050919050565b5f61296861296361295e8461284f565b612945565b61284f565b9050919050565b5f6129798261294e565b9050919050565b5f61298a8261296f565b9050919050565b61299a81612980565b82525050565b5f6020820190506129b35f830184612991565b92915050565b6129c28161286e565b82525050565b5f6020820190506129db5f8301846129b9565b92915050565b6129ea816128a9565b82525050565b5f602082019050612a035f8301846129e1565b92915050565b5f60208284031215612a1e57612a1d6127b7565b5b5f612a2b84828501612895565b91505092915050565b612a3d816127bb565b82525050565b5f602082019050612a565f830184612a34565b92915050565b5f612a668261296f565b9050919050565b612a7681612a5c565b82525050565b5f602082019050612a8f5f830184612a6d565b92915050565b5f81519050919050565b5f82825260208201905092915050565b5f819050602082019050919050565b612ac78161286e565b82525050565b5f612ad88383612abe565b60208301905092915050565b5f602082019050919050565b5f612afa82612a95565b612b048185612a9f565b9350612b0f83612aaf565b805f5b83811015612b3f578151612b268882612acd565b9750612b3183612ae4565b925050600181019050612b12565b5085935050505092915050565b5f6020820190508181035f830152612b648184612af0565b905092915050565b5f81519050612b7a816127c6565b92915050565b5f60208284031215612b9557612b946127b7565b5b5f612ba284828501612b6c565b91505092915050565b5f82825260208201905092915050565b7f4f6e6c792061646d696e000000000000000000000000000000000000000000005f82015250565b5f612bef600a83612bab565b9150612bfa82612bbb565b602082019050919050565b5f6020820190508181035f830152612c1c81612be3565b9050919050565b7f50617573656400000000000000000000000000000000000000000000000000005f82015250565b5f612c57600683612bab565b9150612c6282612c23565b602082019050919050565b5f6020820190508181035f830152612c8481612c4b565b9050919050565b7f416d6f756e74203d2030000000000000000000000000000000000000000000005f82015250565b5f612cbf600a83612bab565b9150612cca82612c8b565b602082019050919050565b5f6020820190508181035f830152612cec81612cb3565b9050919050565b7f5061796d656e7420746f6b656e206e6f7420616c6c6f776564000000000000005f82015250565b5f612d27601983612bab565b9150612d3282612cf3565b602082019050919050565b5f6020820190508181035f830152612d5481612d1b565b9050919050565b612d648161281b565b8114612d6e575f80fd5b50565b5f81519050612d7f81612d5b565b92915050565b5f60208284031215612d9a57612d996127b7565b5b5f612da784828501612d71565b91505092915050565b7f4e487b71000000000000000000000000000000000000000000000000000000005f52601160045260245ffd5b5f8160011c9050919050565b5f808291508390505b6001851115612e3257808604811115612e0e57612e0d612db0565b5b6001851615612e1d5780820291505b8081029050612e2b85612ddd565b9450612df2565b94509492505050565b5f82612e4a5760019050612f05565b81612e57575f9050612f05565b8160018114612e6d5760028114612e7757612ea6565b6001915050612f05565b60ff841115612e8957612e88612db0565b5b8360020a915084821115612ea057612e9f612db0565b5b50612f05565b5060208310610133831016604e8410600b8410161715612edb5782820a905083811115612ed657612ed5612db0565b5b612f05565b612ee88484846001612de9565b92509050818404811115612eff57612efe612db0565b5b81810290505b9392505050565b5f612f16826128a9565b9150612f218361281b565b9250612f4e7fffffffffffffffffffffffffffffffffffffffffffffffffffffffffffffffff8484612e3b565b905092915050565b5f612f60826128a9565b9150612f6b836128a9565b9250828202612f79816128a9565b91508282048414831517612f9057612f8f612db0565b5b5092915050565b7f4e487b71000000000000000000000000000000000000000000000000000000005f52601260045260245ffd5b5f612fce826128a9565b9150612fd9836128a9565b925082612fe957612fe8612f97565b5b828204905092915050565b7f546f6f20736d616c6c00000000000000000000000000000000000000000000005f82015250565b5f613028600983612bab565b915061303382612ff4565b602082019050919050565b5f6020820190508181035f8301526130558161301c565b9050919050565b5f8151905061306a816128b2565b92915050565b5f60208284031215613085576130846127b7565b5b5f6130928482850161305c565b91505092915050565b7f496e73756666696369656e742049434f20746f6b656e730000000000000000005f82015250565b5f6130cf601783612bab565b91506130da8261309b565b602082019050919050565b5f6020820190508181035f8301526130fc816130c3565b9050919050565b5f6060820190506131165f8301866129b9565b61312360208301856129b9565b61313060408301846129e1565b949350505050565b7f5061796d656e74206661696c65640000000000000000000000000000000000005f82015250565b5f61316c600e83612bab565b915061317782613138565b602082019050919050565b5f6020820190508181035f83015261319981613160565b9050919050565b5f6040820190506131b35f8301856129b9565b6131c060208301846129e1565b9392505050565b7f5265636569766572207472616e73666572206661696c656400000000000000005f82015250565b5f6131fb601883612bab565b9150613206826131c7565b602082019050919050565b5f6020820190508181035f830152613228816131ef565b9050919050565b5f613239826128a9565b9150613244836128a9565b925082820190508082111561325c5761325b612db0565b5b92915050565b7f4e6f7420656e6f75676820746f6b656e730000000000000000000000000000005f82015250565b5f613296601183612bab565b91506132a182613262565b602082019050919050565b5f6020820190508181035f8301526132c38161328a565b9050919050565b7f49434f207472616e73666572206661696c6564000000000000000000000000005f82015250565b5f6132fe601383612bab565b9150613309826132ca565b602082019050919050565b5f6020820190508181035f83015261332b816132f2565b9050919050565b5f6080820190506133455f8301876129e1565b61335260208301866129e1565b61335f60408301856129e1565b61336c60608301846129b9565b95945050505050565b7f4f6e6c79207374616b696e6720636f6e747261637400000000000000000000005f82015250565b5f6133a9601583612bab565b91506133b482613375565b602082019050919050565b5f6020820190508181035f8301526133d68161339d565b9050919050565b7f5072696365206d757374203e20300000000000000000000000000000000000005f82015250565b5f613411600e83612bab565b915061341c826133dd565b602082019050919050565b5f6020820190508181035f83015261343e81613405565b9050919050565b7f496e76616c696420746f6b656e000000000000000000000000000000000000005f82015250565b5f613479600d83612bab565b915061348482613445565b602082019050919050565b5f6020820190508181035f8301526134a68161346d565b9050919050565b5f6040820190506134c05f8301856129b9565b6134cd6020830184612a34565b9392505050565b7f496e76616c6964206164647265737300000000000000000000000000000000005f82015250565b5f613508600f83612bab565b9150613513826134d4565b602082019050919050565b5f6020820190508181035f830152613535816134fc565b9050919050565b5f613546826128a9565b9150613551836128a9565b925082820390508181111561356957613568612db0565b5b92915050565b7f496e73756666696369656e7400000000000000000000000000000000000000005f82015250565b5f6135a3600c83612bab565b91506135ae8261356f565b602082019050919050565b5f6020820190508181035f8301526135d081613597565b9050919050565b7f546f6b656e207769746864726177206661696c656400000000000000000000005f82015250565b5f61360b601583612bab565b9150613616826135d7565b602082019050919050565b5f6020820190508181035f830152613638816135ff565b9050919050565b7f4d617820313030250000000000000000000000000000000000000000000000005f82015250565b5f613673600883612bab565b915061367e8261363f565b602082019050919050565b5f6020820190508181035f8301526136a081613667565b9050919050565b7f496e76616c6964207374616b696e6700000000000000000000000000000000005f82015250565b5f6136db600f83612bab565b91506136e6826136a7565b602082019050919050565b5f6020820190508181035f830152613708816136cf565b9050919050565b7f496e646578204f4f4200000000000000000000000000000000000000000000005f82015250565b5f613743600983612bab565b915061374e8261370f565b602082019050919050565b5f6020820190508181035f83015261377081613737565b9050919050565b7f4e487b71000000000000000000000000000000000000000000000000000000005f52603260045260245ffd5b7f4e487b71000000000000000000000000000000000000000000000000000000005f52603160045260245ffd5b7f5072696365203e203000000000000000000000000000000000000000000000005f82015250565b5f613805600983612bab565b9150613810826137d1565b602082019050919050565b5f6020820190508181035f830152613832816137f9565b9050919050565b7f526563656976657273206e6f74207365740000000000000000000000000000005f82015250565b5f61386d601183612bab565b915061387882613839565b602082019050919050565b5f6020820190508181035f83015261389a81613861565b9050919050565b5f6138ab826128a9565b91506138b6836128a9565b9250826138c6576138c5612f97565b5b82820690509291505056fea26469706673582212205df39b855a4126d05dc22b5f6c9fab02783883522e9e211bab55371e9af5588664736f6c634300081a0033",
  "linkReferences": {},
  "deployedLinkReferences": {}
}