{
  "_format": "hh-sol-artifact-1",
  "contractName": "Token",
  "sourceName": "contracts/Token.sol",
  "abi": [
    {
      "inputs": [
        {
          "internalType": "string",
          "name": "_name",
          "type": "string"
        },
        {
          "internalType": "string",
          "name": "_symbol",
          "type": "string"
        },
        {
          "internalType": "uint8",
          "name": "_decimals",
          "type": "uint8"
        },
        {
          "internalType": "uint256",
          "name": "_maxSupply",
          "type": "uint256"
        }
      ],
      "stateMutability": "nonpayable",
      "type": "constructor"
    },
    {
      "anonymous": false,
      "inputs": [
        {
          "indexed": true,
          "internalType": "address",
          "name": "owner",
          "type": "address"
        },
        {
          "indexed": true,
          "internalType": "address",
          "name": "spender",
          "type": "address"
        },
        {
          "indexed": false,
          "internalType": "uint256",
          "name": "value",
          "type": "uint256"
        }
      ],
      "name": "Approval",
      "type": "event"
    },
    {
      "anonymous": false,
      "inputs": [
        {
          "indexed": true,
          "internalType": "address",
          "name": "burner",
          "type": "address"
        },
        {
          "indexed": false,
          "internalType": "uint256",
          "name": "amount",
          "type": "uint256"
        }
      ],
      "name": "Burn",
      "type": "event"
    },
    {
      "anonymous": false,
      "inputs": [
        {
          "indexed": true,
          "internalType": "address",
          "name": "staking",
          "type": "address"
        }
      ],
      "name": "StakingAddressSet",
      "type": "event"
    },
    {
      "anonymous": false,
      "inputs": [
        {
          "indexed": true,
          "internalType": "address",
          "name": "from",
          "type": "address"
        },
        {
          "indexed": true,
          "internalType": "address",
          "name": "to",
          "type": "address"
        },
        {
          "indexed": false,
          "internalType": "uint256",
          "name": "value",
          "type": "uint256"
        }
      ],
      "name": "Transfer",
      "type": "event"
    },
    {
      "inputs": [
        {
          "internalType": "address",
          "name": "owner",
          "type": "address"
        },
        {
          "internalType": "address",
          "name": "spender",
          "type": "address"
        }
      ],
      "name": "allowance",
      "outputs": [
        {
          "internalType": "uint256",
          "name": "",
          "type": "uint256"
        }
      ],
      "stateMutability": "view",
      "type": "function"
    },
    {
      "inputs": [
        {
          "internalType": "address",
          "name": "spender",
          "type": "address"
        },
        {
          "internalType": "uint256",
          "name": "amount",
          "type": "uint256"
        }
      ],
      "name": "approve",
      "outputs": [
        {
          "internalType": "bool",
          "name": "",
          "type": "bool"
        }
      ],
      "stateMutability": "nonpayable",
      "type": "function"
    },
    {
      "inputs": [
        {
          "internalType": "address",
          "name": "account",
          "type": "address"
        }
      ],
      "name": "balanceOf",
      "outputs": [
        {
          "internalType": "uint256",
          "name": "",
          "type": "uint256"
        }
      ],
      "stateMutability": "view",
      "type": "function"
    },
    {
      "inputs": [
        {
          "internalType": "uint256",
          "name": "amount",
          "type": "uint256"
        }
      ],
      "name": "burn",
      "outputs": [],
      "stateMutability": "nonpayable",
      "type": "function"
    },
    {
      "inputs": [],
      "name": "decimals",
      "outputs": [
        {
          "internalType": "uint8",
          "name": "",
          "type": "uint8"
        }
      ],
      "stateMutability": "view",
      "type": "function"
    },
    {
      "inputs": [],
      "name": "maxSupply",
      "outputs": [
        {
          "internalType": "uint256",
          "name": "",
          "type": "uint256"
        }
      ],
      "stateMutability": "view",
      "type": "function"
    },
    {
      "inputs": [
        {
          "internalType": "uint256",
          "name": "amount",
          "type": "uint256"
        }
      ],
      "name": "mint",
      "outputs": [],
      "stateMutability": "nonpayable",
      "type": "function"
    },
    {
      "inputs": [],
      "name": "name",
      "outputs": [
        {
          "internalType": "string",
          "name": "",
          "type": "string"
        }
      ],
      "stateMutability": "view",
      "type": "function"
    },
    {
      "inputs": [
        {
          "internalType": "address",
          "name": "_staking",
          "type": "address"
        }
      ],
      "name": "setStakingAddress",
      "outputs": [],
      "stateMutability": "nonpayable",
      "type": "function"
    },
    {
      "inputs": [],
      "name": "stakingAddress",
      "outputs": [
        {
          "internalType": "address",
          "name": "",
          "type": "address"
        }
      ],
      "stateMutability": "view",
      "type": "function"
    },
    {
      "inputs": [],
      "name": "symbol",
      "outputs": [
        {
          "internalType": "string",
          "name": "",
          "type": "string"
        }
      ],
      "stateMutability": "view",
      "type": "function"
    },
    {
      "inputs": [],
      "name": "totalSupply",
      "outputs": [
        {
          "internalType": "uint256",
          "name": "",
          "type": "uint256"
        }
      ],
      "stateMutability": "view",
      "type": "function"
    },
    {
      "inputs": [
        {
          "internalType": "address",
          "name": "recipient",
          "type": "address"
        },
        {
          "internalType": "uint256",
          "name": "amount",
          "type": "uint256"
        }
      ],
      "name": "transfer",
      "outputs": [
        {
          "internalType": "bool",
          "name": "",
          "type": "bool"
        }
      ],
      "stateMutability": "nonpayable",
      "type": "function"
    },
    {
      "inputs": [
        {
          "internalType": "address",
          "name": "sender",
          "type": "address"
        },
        {
          "internalType": "address",
          "name": "recipient",
          "type": "address"
        },
        {
          "internalType": "uint256",
          "name": "amount",
          "type": "uint256"
        }
      ],
      "name": "transferFrom",
      "outputs": [
        {
          "internalType": "bool",
          "name": "",
          "type": "bool"
        }
      ],
      "stateMutability": "nonpayable",
      "type": "function"
    }
  ],
  "bytecode": "608060405234801561000f575f80fd5b50604051611ce9380380611ce983398181016040528101906100319190610270565b835f908161003f9190610510565b50826001908161004f9190610510565b508160025f6101000a81548160ff021916908360ff160217905550806003819055503360055f6101000a81548173ffffffffffffffffffffffffffffffffffffffff021916908373ffffffffffffffffffffffffffffffffffffffff160217905550505050506105df565b5f604051905090565b5f80fd5b5f80fd5b5f80fd5b5f80fd5b5f601f19601f8301169050919050565b7f4e487b71000000000000000000000000000000000000000000000000000000005f52604160045260245ffd5b610119826100d3565b810181811067ffffffffffffffff82111715610138576101376100e3565b5b80604052505050565b5f61014a6100ba565b90506101568282610110565b919050565b5f67ffffffffffffffff821115610175576101746100e3565b5b61017e826100d3565b9050602081019050919050565b8281835e5f83830152505050565b5f6101ab6101a68461015b565b610141565b9050828152602081018484840111156101c7576101c66100cf565b5b6101d284828561018b565b509392505050565b5f82601f8301126101ee576101ed6100cb565b5b81516101fe848260208601610199565b91505092915050565b5f60ff82169050919050565b61021c81610207565b8114610226575f80fd5b50565b5f8151905061023781610213565b92915050565b5f819050919050565b61024f8161023d565b8114610259575f80fd5b50565b5f8151905061026a81610246565b92915050565b5f805f8060808587031215610288576102876100c3565b5b5f85015167ffffffffffffffff8111156102a5576102a46100c7565b5b6102b1878288016101da565b945050602085015167ffffffffffffffff8111156102d2576102d16100c7565b5b6102de878288016101da565b93505060406102ef87828801610229565b92505060606103008782880161025c565b91505092959194509250565b5f81519050919050565b7f4e487b71000000000000000000000000000000000000000000000000000000005f52602260045260245ffd5b5f600282049050600182168061035a57607f821691505b60208210810361036d5761036c610316565b5b50919050565b5f819050815f5260205f209050919050565b5f6020601f8301049050919050565b5f82821b905092915050565b5f600883026103cf7fffffffffffffffffffffffffffffffffffffffffffffffffffffffffffffffff82610394565b6103d98683610394565b95508019841693508086168417925050509392505050565b5f819050919050565b5f61041461040f61040a8461023d565b6103f1565b61023d565b9050919050565b5f819050919050565b61042d836103fa565b6104416104398261041b565b8484546103a0565b825550505050565b5f90565b610455610449565b610460818484610424565b505050565b5b81811015610483576104785f8261044d565b600181019050610466565b5050565b601f8211156104c85761049981610373565b6104a284610385565b810160208510156104b1578190505b6104c56104bd85610385565b830182610465565b50505b505050565b5f82821c905092915050565b5f6104e85f19846008026104cd565b1980831691505092915050565b5f61050083836104d9565b9150826002028217905092915050565b6105198261030c565b67ffffffffffffffff811115610532576105316100e3565b5b61053c8254610343565b610547828285610487565b5f60209050601f831160018114610578575f8415610566578287015190505b61057085826104f5565b8655506105d7565b601f19841661058686610373565b5f5b828110156105ad57848901518255600182019150602085019450602081019050610588565b868310156105ca57848901516105c6601f8916826104d9565b8355505b6001600288020188555050505b505050505050565b6116fd806105ec5f395ff3fe608060405234801561000f575f80fd5b50600436106100e8575f3560e01c806395d89b411161008a578063d5abeb0111610064578063d5abeb011461025c578063d7b4be241461027a578063dd62ed3e14610298578063f4e0d9ac146102c8576100e8565b806395d89b41146101f2578063a0712d6814610210578063a9059cbb1461022c576100e8565b806323b872dd116100c657806323b872dd14610158578063313ce5671461018857806342966c68146101a657806370a08231146101c2576100e8565b806306fdde03146100ec578063095ea7b31461010a57806318160ddd1461013a575b5f80fd5b6100f46102e4565b604051610101919061100d565b60405180910390f35b610124600480360381019061011f91906110be565b61036f565b6040516101319190611116565b60405180910390f35b61014261045c565b60405161014f919061113e565b60405180910390f35b610172600480360381019061016d9190611157565b610465565b60405161017f9190611116565b60405180910390f35b6101906105c5565b60405161019d91906111c2565b60405180910390f35b6101c060048036038101906101bb91906111db565b6105d7565b005b6101dc60048036038101906101d79190611206565b6105e4565b6040516101e9919061113e565b60405180910390f35b6101fa61062a565b604051610207919061100d565b60405180910390f35b61022a600480360381019061022591906111db565b6106b6565b005b610246600480360381019061024191906110be565b610802565b6040516102539190611116565b60405180910390f35b610264610818565b604051610271919061113e565b60405180910390f35b61028261081e565b60405161028f9190611240565b60405180910390f35b6102b260048036038101906102ad9190611259565b610843565b6040516102bf919061113e565b60405180910390f35b6102e260048036038101906102dd9190611206565b6108c5565b005b5f80546102f0906112c4565b80601f016020809104026020016040519081016040528092919081815260200182805461031c906112c4565b80156103675780601f1061033e57610100808354040283529160200191610367565b820191905f5260205f20905b81548152906001019060200180831161034a57829003601f168201915b505050505081565b5f8160075f3373ffffffffffffffffffffffffffffffffffffffff1673ffffffffffffffffffffffffffffffffffffffff1681526020019081526020015f205f8573ffffffffffffffffffffffffffffffffffffffff1673ffffffffffffffffffffffffffffffffffffffff1681526020019081526020015f20819055508273ffffffffffffffffffffffffffffffffffffffff163373ffffffffffffffffffffffffffffffffffffffff167f8c5be1e5ebec7d5bd14f71427d1e84f3dd0314c0f7b2291e5b200ac8c7c3b9258460405161044a919061113e565b60405180910390a36001905092915050565b5f600854905090565b5f8160075f8673ffffffffffffffffffffffffffffffffffffffff1673ffffffffffffffffffffffffffffffffffffffff1681526020019081526020015f205f3373ffffffffffffffffffffffffffffffffffffffff1673ffffffffffffffffffffffffffffffffffffffff1681526020019081526020015f20541015610521576040517f08c379a00000000000000000000000000000000000000000000000000000000081526004016105189061133e565b60405180910390fd5b8160075f8673ffffffffffffffffffffffffffffffffffffffff1673ffffffffffffffffffffffffffffffffffffffff1681526020019081526020015f205f3373ffffffffffffffffffffffffffffffffffffffff1673ffffffffffffffffffffffffffffffffffffffff1681526020019081526020015f205f8282546105a89190611389565b925050819055506105ba848484610ad7565b600190509392505050565b60025f9054906101000a900460ff1681565b6105e13382610c67565b50565b5f60065f8373ffffffffffffffffffffffffffffffffffffffff1673ffffffffffffffffffffffffffffffffffffffff1681526020019081526020015f20549050919050565b60018054610637906112c4565b80601f0160208091040260200160405190810160405280929190818152602001828054610663906112c4565b80156106ae5780601f10610685576101008083540402835291602001916106ae565b820191905f5260205f20905b81548152906001019060200180831161069157829003601f168201915b505050505081565b60055f9054906101000a900473ffffffffffffffffffffffffffffffffffffffff1673ffffffffffffffffffffffffffffffffffffffff163373ffffffffffffffffffffffffffffffffffffffff1614610745576040517f08c379a000000000000000000000000000000000000000000000000000000000815260040161073c90611406565b60405180910390fd5b5f73ffffffffffffffffffffffffffffffffffffffff1660045f9054906101000a900473ffffffffffffffffffffffffffffffffffffffff1673ffffffffffffffffffffffffffffffffffffffff16036107d4576040517f08c379a00000000000000000000000000000000000000000000000000000000081526004016107cb9061146e565b60405180910390fd5b6107ff60045f9054906101000a900473ffffffffffffffffffffffffffffffffffffffff1682610e09565b50565b5f61080e338484610ad7565b6001905092915050565b60035481565b60045f9054906101000a900473ffffffffffffffffffffffffffffffffffffffff1681565b5f60075f8473ffffffffffffffffffffffffffffffffffffffff1673ffffffffffffffffffffffffffffffffffffffff1681526020019081526020015f205f8373ffffffffffffffffffffffffffffffffffffffff1673ffffffffffffffffffffffffffffffffffffffff1681526020019081526020015f2054905092915050565b60055f9054906101000a900473ffffffffffffffffffffffffffffffffffffffff1673ffffffffffffffffffffffffffffffffffffffff163373ffffffffffffffffffffffffffffffffffffffff1614610954576040517f08c379a000000000000000000000000000000000000000000000000000000000815260040161094b90611406565b60405180910390fd5b5f73ffffffffffffffffffffffffffffffffffffffff168173ffffffffffffffffffffffffffffffffffffffff16036109c2576040517f08c379a00000000000000000000000000000000000000000000000000000000081526004016109b9906114d6565b60405180910390fd5b5f73ffffffffffffffffffffffffffffffffffffffff1660045f9054906101000a900473ffffffffffffffffffffffffffffffffffffffff1673ffffffffffffffffffffffffffffffffffffffff1614610a51576040517f08c379a0000000000000000000000000000000000000000000000000000000008152600401610a489061153e565b60405180910390fd5b8060045f6101000a81548173ffffffffffffffffffffffffffffffffffffffff021916908373ffffffffffffffffffffffffffffffffffffffff1602179055508073ffffffffffffffffffffffffffffffffffffffff167f524b317898d91e941d8311edbdd1bf568e07309f08e11f7ef94c053a9e35f91860405160405180910390a250565b8060065f8573ffffffffffffffffffffffffffffffffffffffff1673ffffffffffffffffffffffffffffffffffffffff1681526020019081526020015f20541015610b57576040517f08c379a0000000000000000000000000000000000000000000000000000000008152600401610b4e906115a6565b60405180910390fd5b8060065f8573ffffffffffffffffffffffffffffffffffffffff1673ffffffffffffffffffffffffffffffffffffffff1681526020019081526020015f205f828254610ba39190611389565b925050819055508060065f8473ffffffffffffffffffffffffffffffffffffffff1673ffffffffffffffffffffffffffffffffffffffff1681526020019081526020015f205f828254610bf691906115c4565b925050819055508173ffffffffffffffffffffffffffffffffffffffff168373ffffffffffffffffffffffffffffffffffffffff167fddf252ad1be2c89b69c2b068fc378daa952ba7f163c4a11628f55a4df523b3ef83604051610c5a919061113e565b60405180910390a3505050565b8060065f8473ffffffffffffffffffffffffffffffffffffffff1673ffffffffffffffffffffffffffffffffffffffff1681526020019081526020015f20541015610ce7576040517f08c379a0000000000000000000000000000000000000000000000000000000008152600401610cde906115a6565b60405180910390fd5b8060065f8473ffffffffffffffffffffffffffffffffffffffff1673ffffffffffffffffffffffffffffffffffffffff1681526020019081526020015f205f828254610d339190611389565b925050819055508060085f828254610d4b9190611389565b925050819055508173ffffffffffffffffffffffffffffffffffffffff167fcc16f5dbb4873280815c1ee09dbd06736cffcc184412cf7a71a0fdb75d397ca582604051610d98919061113e565b60405180910390a25f73ffffffffffffffffffffffffffffffffffffffff168273ffffffffffffffffffffffffffffffffffffffff167fddf252ad1be2c89b69c2b068fc378daa952ba7f163c4a11628f55a4df523b3ef83604051610dfd919061113e565b60405180910390a35050565b5f73ffffffffffffffffffffffffffffffffffffffff168273ffffffffffffffffffffffffffffffffffffffff1603610e77576040517f08c379a0000000000000000000000000000000000000000000000000000000008152600401610e6e90611641565b60405180910390fd5b60035481600854610e8891906115c4565b1115610ec9576040517f08c379a0000000000000000000000000000000000000000000000000000000008152600401610ec0906116a9565b60405180910390fd5b8060085f828254610eda91906115c4565b925050819055508060065f8473ffffffffffffffffffffffffffffffffffffffff1673ffffffffffffffffffffffffffffffffffffffff1681526020019081526020015f205f828254610f2d91906115c4565b925050819055508173ffffffffffffffffffffffffffffffffffffffff165f73ffffffffffffffffffffffffffffffffffffffff167fddf252ad1be2c89b69c2b068fc378daa952ba7f163c4a11628f55a4df523b3ef83604051610f91919061113e565b60405180910390a35050565b5f81519050919050565b5f82825260208201905092915050565b8281835e5f83830152505050565b5f601f19601f8301169050919050565b5f610fdf82610f9d565b610fe98185610fa7565b9350610ff9818560208601610fb7565b61100281610fc5565b840191505092915050565b5f6020820190508181035f8301526110258184610fd5565b905092915050565b5f80fd5b5f73ffffffffffffffffffffffffffffffffffffffff82169050919050565b5f61105a82611031565b9050919050565b61106a81611050565b8114611074575f80fd5b50565b5f8135905061108581611061565b92915050565b5f819050919050565b61109d8161108b565b81146110a7575f80fd5b50565b5f813590506110b881611094565b92915050565b5f80604083850312156110d4576110d361102d565b5b5f6110e185828601611077565b92505060206110f2858286016110aa565b9150509250929050565b5f8115159050919050565b611110816110fc565b82525050565b5f6020820190506111295f830184611107565b92915050565b6111388161108b565b82525050565b5f6020820190506111515f83018461112f565b92915050565b5f805f6060848603121561116e5761116d61102d565b5b5f61117b86828701611077565b935050602061118c86828701611077565b925050604061119d868287016110aa565b9150509250925092565b5f60ff82169050919050565b6111bc816111a7565b82525050565b5f6020820190506111d55f8301846111b3565b92915050565b5f602082840312156111f0576111ef61102d565b5b5f6111fd848285016110aa565b91505092915050565b5f6020828403121561121b5761121a61102d565b5b5f61122884828501611077565b91505092915050565b61123a81611050565b82525050565b5f6020820190506112535f830184611231565b92915050565b5f806040838503121561126f5761126e61102d565b5b5f61127c85828601611077565b925050602061128d85828601611077565b9150509250929050565b7f4e487b71000000000000000000000000000000000000000000000000000000005f52602260045260245ffd5b5f60028204905060018216806112db57607f821691505b6020821081036112ee576112ed611297565b5b50919050565b7f416c6c6f77616e6365206c6f77000000000000000000000000000000000000005f82015250565b5f611328600d83610fa7565b9150611333826112f4565b602082019050919050565b5f6020820190508181035f8301526113558161131c565b9050919050565b7f4e487b71000000000000000000000000000000000000000000000000000000005f52601160045260245ffd5b5f6113938261108b565b915061139e8361108b565b92508282039050818111156113b6576113b561135c565b5b92915050565b7f4f6e6c79206f776e6572000000000000000000000000000000000000000000005f82015250565b5f6113f0600a83610fa7565b91506113fb826113bc565b602082019050919050565b5f6020820190508181035f83015261141d816113e4565b9050919050565b7f5374616b696e67206e6f742073657400000000000000000000000000000000005f82015250565b5f611458600f83610fa7565b915061146382611424565b602082019050919050565b5f6020820190508181035f8301526114858161144c565b9050919050565b7f496e76616c6964206164647265737300000000000000000000000000000000005f82015250565b5f6114c0600f83610fa7565b91506114cb8261148c565b602082019050919050565b5f6020820190508181035f8301526114ed816114b4565b9050919050565b7f416c7265616479207365740000000000000000000000000000000000000000005f82015250565b5f611528600b83610fa7565b9150611533826114f4565b602082019050919050565b5f6020820190508181035f8301526115558161151c565b9050919050565b7f42616c616e6365206c6f770000000000000000000000000000000000000000005f82015250565b5f611590600b83610fa7565b915061159b8261155c565b602082019050919050565b5f6020820190508181035f8301526115bd81611584565b9050919050565b5f6115ce8261108b565b91506115d98361108b565b92508282019050808211156115f1576115f061135c565b5b92915050565b7f5a65726f206164647265737300000000000000000000000000000000000000005f82015250565b5f61162b600c83610fa7565b9150611636826115f7565b602082019050919050565b5f6020820190508181035f8301526116588161161f565b9050919050565b7f45786365656473206361700000000000000000000000000000000000000000005f82015250565b5f611693600b83610fa7565b915061169e8261165f565b602082019050919050565b5f6020820190508181035f8301526116c081611687565b905091905056fea26469706673582212208164e85941778f86798861cc1c983ab0067de7aff2bfb0c5699a882997e084d564736f6c634300081a0033",
  "linkReferences": {},
  "deployedLinkReferences": {}
}