{
  "_format": "hh-sol-artifact-1",
  "contractName": "Token",
  "sourceName": "contracts/Token.sol",
  "abi": [
    {
      "inputs": [
        {
          "internalType": "string",
          "name": "_name",
          "type": "string"
        },
        {
          "internalType": "string",
          "name": "_symbol",
          "type": "string"
        },
        {
          "internalType": "uint8",
          "name": "_decimals",
          "type": "uint8"
        },
        {
          "internalType": "uint256",
          "name": "_maxSupply",
          "type": "uint256"
        }
      ],
      "stateMutability": "nonpayable",
      "type": "constructor"
    },
    {
      "anonymous": false,
      "inputs": [
        {
          "indexed": true,
          "internalType": "address",
          "name": "owner",
          "type": "address"
        },
        {
          "indexed": true,
          "internalType": "address",
          "name": "spender",
          "type": "address"
        },
        {
          "indexed": false,
          "internalType": "uint256",
          "name": "value",
          "type": "uint256"
        }
      ],
      "name": "Approval",
      "type": "event"
    },
    {
      "anonymous": false,
      "inputs": [
        {
          "indexed": true,
          "internalType": "address",
          "name": "burner",
          "type": "address"
        },
        {
          "indexed": false,
          "internalType": "uint256",
          "name": "amount",
          "type": "uint256"
        }
      ],
      "name": "Burn",
      "type": "event"
    },
    {
      "anonymous": false,
      "inputs": [
        {
          "indexed": true,
          "internalType": "address",
          "name": "to",
          "type": "address"
        },
        {
          "indexed": false,
          "internalType": "uint256",
          "name": "amount",
          "type": "uint256"
        }
      ],
      "name": "Mint",
      "type": "event"
    },
    {
      "anonymous": false,
      "inputs": [
        {
          "indexed": true,
          "internalType": "address",
          "name": "staking",
          "type": "address"
        }
      ],
      "name": "StakingAddressSet",
      "type": "event"
    },
    {
      "anonymous": false,
      "inputs": [
        {
          "indexed": true,
          "internalType": "address",
          "name": "from",
          "type": "address"
        },
        {
          "indexed": true,
          "internalType": "address",
          "name": "to",
          "type": "address"
        },
        {
          "indexed": false,
          "internalType": "uint256",
          "name": "value",
          "type": "uint256"
        }
      ],
      "name": "Transfer",
      "type": "event"
    },
    {
      "inputs": [
        {
          "internalType": "address",
          "name": "owner",
          "type": "address"
        },
        {
          "internalType": "address",
          "name": "spender",
          "type": "address"
        }
      ],
      "name": "allowance",
      "outputs": [
        {
          "internalType": "uint256",
          "name": "",
          "type": "uint256"
        }
      ],
      "stateMutability": "view",
      "type": "function"
    },
    {
      "inputs": [
        {
          "internalType": "address",
          "name": "spender",
          "type": "address"
        },
        {
          "internalType": "uint256",
          "name": "amount",
          "type": "uint256"
        }
      ],
      "name": "approve",
      "outputs": [
        {
          "internalType": "bool",
          "name": "",
          "type": "bool"
        }
      ],
      "stateMutability": "nonpayable",
      "type": "function"
    },
    {
      "inputs": [
        {
          "internalType": "address",
          "name": "account",
          "type": "address"
        }
      ],
      "name": "balanceOf",
      "outputs": [
        {
          "internalType": "uint256",
          "name": "",
          "type": "uint256"
        }
      ],
      "stateMutability": "view",
      "type": "function"
    },
    {
      "inputs": [
        {
          "internalType": "uint256",
          "name": "amount",
          "type": "uint256"
        }
      ],
      "name": "burn",
      "outputs": [],
      "stateMutability": "nonpayable",
      "type": "function"
    },
    {
      "inputs": [],
      "name": "decimals",
      "outputs": [
        {
          "internalType": "uint8",
          "name": "",
          "type": "uint8"
        }
      ],
      "stateMutability": "view",
      "type": "function"
    },
    {
      "inputs": [],
      "name": "getTotalBurned",
      "outputs": [
        {
          "internalType": "uint256",
          "name": "",
          "type": "uint256"
        }
      ],
      "stateMutability": "view",
      "type": "function"
    },
    {
      "inputs": [],
      "name": "getTotalMinted",
      "outputs": [
        {
          "internalType": "uint256",
          "name": "",
          "type": "uint256"
        }
      ],
      "stateMutability": "view",
      "type": "function"
    },
    {
      "inputs": [],
      "name": "maxSupply",
      "outputs": [
        {
          "internalType": "uint256",
          "name": "",
          "type": "uint256"
        }
      ],
      "stateMutability": "view",
      "type": "function"
    },
    {
      "inputs": [
        {
          "internalType": "uint256",
          "name": "amount",
          "type": "uint256"
        }
      ],
      "name": "mint",
      "outputs": [],
      "stateMutability": "nonpayable",
      "type": "function"
    },
    {
      "inputs": [],
      "name": "name",
      "outputs": [
        {
          "internalType": "string",
          "name": "",
          "type": "string"
        }
      ],
      "stateMutability": "view",
      "type": "function"
    },
    {
      "inputs": [
        {
          "internalType": "address",
          "name": "_staking",
          "type": "address"
        }
      ],
      "name": "setStakingAddress",
      "outputs": [],
      "stateMutability": "nonpayable",
      "type": "function"
    },
    {
      "inputs": [],
      "name": "stakingAddress",
      "outputs": [
        {
          "internalType": "address",
          "name": "",
          "type": "address"
        }
      ],
      "stateMutability": "view",
      "type": "function"
    },
    {
      "inputs": [],
      "name": "symbol",
      "outputs": [
        {
          "internalType": "string",
          "name": "",
          "type": "string"
        }
      ],
      "stateMutability": "view",
      "type": "function"
    },
    {
      "inputs": [],
      "name": "totalBurned",
      "outputs": [
        {
          "internalType": "uint256",
          "name": "",
          "type": "uint256"
        }
      ],
      "stateMutability": "view",
      "type": "function"
    },
    {
      "inputs": [],
      "name": "totalMinted",
      "outputs": [
        {
          "internalType": "uint256",
          "name": "",
          "type": "uint256"
        }
      ],
      "stateMutability": "view",
      "type": "function"
    },
    {
      "inputs": [],
      "name": "totalSupply",
      "outputs": [
        {
          "internalType": "uint256",
          "name": "",
          "type": "uint256"
        }
      ],
      "stateMutability": "view",
      "type": "function"
    },
    {
      "inputs": [
        {
          "internalType": "address",
          "name": "recipient",
          "type": "address"
        },
        {
          "internalType": "uint256",
          "name": "amount",
          "type": "uint256"
        }
      ],
      "name": "transfer",
      "outputs": [
        {
          "internalType": "bool",
          "name": "",
          "type": "bool"
        }
      ],
      "stateMutability": "nonpayable",
      "type": "function"
    },
    {
      "inputs": [
        {
          "internalType": "address",
          "name": "sender",
          "type": "address"
        },
        {
          "internalType": "address",
          "name": "recipient",
          "type": "address"
        },
        {
          "internalType": "uint256",
          "name": "amount",
          "type": "uint256"
        }
      ],
      "name": "transferFrom",
      "outputs": [
        {
          "internalType": "bool",
          "name": "",
          "type": "bool"
        }
      ],
      "stateMutability": "nonpayable",
      "type": "function"
    }
  ],
  "bytecode": "608060405234801561000f575f80fd5b50604051611d32380380611d3283398181016040528101906100319190610270565b835f908161003f9190610510565b50826001908161004f9190610510565b508160025f6101000a81548160ff021916908360ff160217905550806003819055503360055f6101000a81548173ffffffffffffffffffffffffffffffffffffffff021916908373ffffffffffffffffffffffffffffffffffffffff160217905550505050506105df565b5f604051905090565b5f80fd5b5f80fd5b5f80fd5b5f80fd5b5f601f19601f8301169050919050565b7f4e487b71000000000000000000000000000000000000000000000000000000005f52604160045260245ffd5b610119826100d3565b810181811067ffffffffffffffff82111715610138576101376100e3565b5b80604052505050565b5f61014a6100ba565b90506101568282610110565b919050565b5f67ffffffffffffffff821115610175576101746100e3565b5b61017e826100d3565b9050602081019050919050565b8281835e5f83830152505050565b5f6101ab6101a68461015b565b610141565b9050828152602081018484840111156101c7576101c66100cf565b5b6101d284828561018b565b509392505050565b5f82601f8301126101ee576101ed6100cb565b5b81516101fe848260208601610199565b91505092915050565b5f60ff82169050919050565b61021c81610207565b8114610226575f80fd5b50565b5f8151905061023781610213565b92915050565b5f819050919050565b61024f8161023d565b8114610259575f80fd5b50565b5f8151905061026a81610246565b92915050565b5f805f8060808587031215610288576102876100c3565b5b5f85015167ffffffffffffffff8111156102a5576102a46100c7565b5b6102b1878288016101da565b945050602085015167ffffffffffffffff8111156102d2576102d16100c7565b5b6102de878288016101da565b93505060406102ef87828801610229565b92505060606103008782880161025c565b91505092959194509250565b5f81519050919050565b7f4e487b71000000000000000000000000000000000000000000000000000000005f52602260045260245ffd5b5f600282049050600182168061035a57607f821691505b60208210810361036d5761036c610316565b5b50919050565b5f819050815f5260205f209050919050565b5f6020601f8301049050919050565b5f82821b905092915050565b5f600883026103cf7fffffffffffffffffffffffffffffffffffffffffffffffffffffffffffffffff82610394565b6103d98683610394565b95508019841693508086168417925050509392505050565b5f819050919050565b5f61041461040f61040a8461023d565b6103f1565b61023d565b9050919050565b5f819050919050565b61042d836103fa565b6104416104398261041b565b8484546103a0565b825550505050565b5f90565b610455610449565b610460818484610424565b505050565b5b81811015610483576104785f8261044d565b600181019050610466565b5050565b601f8211156104c85761049981610373565b6104a284610385565b810160208510156104b1578190505b6104c56104bd85610385565b830182610465565b50505b505050565b5f82821c905092915050565b5f6104e85f19846008026104cd565b1980831691505092915050565b5f61050083836104d9565b9150826002028217905092915050565b6105198261030c565b67ffffffffffffffff811115610532576105316100e3565b5b61053c8254610343565b610547828285610487565b5f60209050601f831160018114610578575f8415610566578287015190505b61057085826104f5565b8655506105d7565b601f19841661058686610373565b5f5b828110156105ad57848901518255600182019150602085019450602081019050610588565b868310156105ca57848901516105c6601f8916826104d9565b8355505b6001600288020188555050505b505050505050565b611746806105ec5f395ff3fe608060405234801561000f575f80fd5b5060043610610114575f3560e01c8063a0712d68116100a0578063d5abeb011161006f578063d5abeb01146102e2578063d7b4be2414610300578063d89135cd1461031e578063dd62ed3e1461033c578063f4e0d9ac1461036c57610114565b8063a0712d681461025a578063a2309ff814610276578063a9059cbb14610294578063b55cd04b146102c457610114565b806323b872dd116100e757806323b872dd146101a2578063313ce567146101d257806342966c68146101f057806370a082311461020c57806395d89b411461023c57610114565b806306fdde0314610118578063095ea7b3146101365780630ca1c5c91461016657806318160ddd14610184575b5f80fd5b610120610388565b60405161012d91906110be565b60405180910390f35b610150600480360381019061014b919061116f565b610413565b60405161015d91906111c7565b60405180910390f35b61016e610500565b60405161017b91906111ef565b60405180910390f35b61018c610509565b60405161019991906111ef565b60405180910390f35b6101bc60048036038101906101b79190611208565b610512565b6040516101c991906111c7565b60405180910390f35b6101da610672565b6040516101e79190611273565b60405180910390f35b61020a6004803603810190610205919061128c565b610684565b005b610226600480360381019061022191906112b7565b610691565b60405161023391906111ef565b60405180910390f35b6102446106d7565b60405161025191906110be565b60405180910390f35b610274600480360381019061026f919061128c565b610763565b005b61027e6108af565b60405161028b91906111ef565b60405180910390f35b6102ae60048036038101906102a9919061116f565b6108b5565b6040516102bb91906111c7565b60405180910390f35b6102cc6108cb565b6040516102d991906111ef565b60405180910390f35b6102ea6108d4565b6040516102f791906111ef565b60405180910390f35b6103086108da565b60405161031591906112f1565b60405180910390f35b6103266108ff565b60405161033391906111ef565b60405180910390f35b6103566004803603810190610351919061130a565b610905565b60405161036391906111ef565b60405180910390f35b610386600480360381019061038191906112b7565b610987565b005b5f805461039490611375565b80601f01602080910402602001604051908101604052809291908181526020018280546103c090611375565b801561040b5780601f106103e25761010080835404028352916020019161040b565b820191905f5260205f20905b8154815290600101906020018083116103ee57829003601f168201915b505050505081565b5f8160075f3373ffffffffffffffffffffffffffffffffffffffff1673ffffffffffffffffffffffffffffffffffffffff1681526020019081526020015f205f8573ffffffffffffffffffffffffffffffffffffffff1673ffffffffffffffffffffffffffffffffffffffff1681526020019081526020015f20819055508273ffffffffffffffffffffffffffffffffffffffff163373ffffffffffffffffffffffffffffffffffffffff167f8c5be1e5ebec7d5bd14f71427d1e84f3dd0314c0f7b2291e5b200ac8c7c3b925846040516104ee91906111ef565b60405180910390a36001905092915050565b5f600954905090565b5f600854905090565b5f8160075f8673ffffffffffffffffffffffffffffffffffffffff1673ffffffffffffffffffffffffffffffffffffffff1681526020019081526020015f205f3373ffffffffffffffffffffffffffffffffffffffff1673ffffffffffffffffffffffffffffffffffffffff1681526020019081526020015f205410156105ce576040517f08c379a00000000000000000000000000000000000000000000000000000000081526004016105c5906113ef565b60405180910390fd5b8160075f8673ffffffffffffffffffffffffffffffffffffffff1673ffffffffffffffffffffffffffffffffffffffff1681526020019081526020015f205f3373ffffffffffffffffffffffffffffffffffffffff1673ffffffffffffffffffffffffffffffffffffffff1681526020019081526020015f205f828254610655919061143a565b92505081905550610667848484610b0a565b600190509392505050565b60025f9054906101000a900460ff1681565b61068e3382610c9a565b50565b5f60065f8373ffffffffffffffffffffffffffffffffffffffff1673ffffffffffffffffffffffffffffffffffffffff1681526020019081526020015f20549050919050565b600180546106e490611375565b80601f016020809104026020016040519081016040528092919081815260200182805461071090611375565b801561075b5780601f106107325761010080835404028352916020019161075b565b820191905f5260205f20905b81548152906001019060200180831161073e57829003601f168201915b505050505081565b60055f9054906101000a900473ffffffffffffffffffffffffffffffffffffffff1673ffffffffffffffffffffffffffffffffffffffff163373ffffffffffffffffffffffffffffffffffffffff16146107f2576040517f08c379a00000000000000000000000000000000000000000000000000000000081526004016107e9906114b7565b60405180910390fd5b5f73ffffffffffffffffffffffffffffffffffffffff1660045f9054906101000a900473ffffffffffffffffffffffffffffffffffffffff1673ffffffffffffffffffffffffffffffffffffffff1603610881576040517f08c379a00000000000000000000000000000000000000000000000000000000081526004016108789061151f565b60405180910390fd5b6108ac60045f9054906101000a900473ffffffffffffffffffffffffffffffffffffffff1682610e54565b50565b60095481565b5f6108c1338484610b0a565b6001905092915050565b5f600a54905090565b60035481565b60045f9054906101000a900473ffffffffffffffffffffffffffffffffffffffff1681565b600a5481565b5f60075f8473ffffffffffffffffffffffffffffffffffffffff1673ffffffffffffffffffffffffffffffffffffffff1681526020019081526020015f205f8373ffffffffffffffffffffffffffffffffffffffff1673ffffffffffffffffffffffffffffffffffffffff1681526020019081526020015f2054905092915050565b60055f9054906101000a900473ffffffffffffffffffffffffffffffffffffffff1673ffffffffffffffffffffffffffffffffffffffff163373ffffffffffffffffffffffffffffffffffffffff1614610a16576040517f08c379a0000000000000000000000000000000000000000000000000000000008152600401610a0d906114b7565b60405180910390fd5b5f73ffffffffffffffffffffffffffffffffffffffff168173ffffffffffffffffffffffffffffffffffffffff1603610a84576040517f08c379a0000000000000000000000000000000000000000000000000000000008152600401610a7b90611587565b60405180910390fd5b8060045f6101000a81548173ffffffffffffffffffffffffffffffffffffffff021916908373ffffffffffffffffffffffffffffffffffffffff1602179055508073ffffffffffffffffffffffffffffffffffffffff167f524b317898d91e941d8311edbdd1bf568e07309f08e11f7ef94c053a9e35f91860405160405180910390a250565b8060065f8573ffffffffffffffffffffffffffffffffffffffff1673ffffffffffffffffffffffffffffffffffffffff1681526020019081526020015f20541015610b8a576040517f08c379a0000000000000000000000000000000000000000000000000000000008152600401610b81906115ef565b60405180910390fd5b8060065f8573ffffffffffffffffffffffffffffffffffffffff1673ffffffffffffffffffffffffffffffffffffffff1681526020019081526020015f205f828254610bd6919061143a565b925050819055508060065f8473ffffffffffffffffffffffffffffffffffffffff1673ffffffffffffffffffffffffffffffffffffffff1681526020019081526020015f205f828254610c29919061160d565b925050819055508173ffffffffffffffffffffffffffffffffffffffff168373ffffffffffffffffffffffffffffffffffffffff167fddf252ad1be2c89b69c2b068fc378daa952ba7f163c4a11628f55a4df523b3ef83604051610c8d91906111ef565b60405180910390a3505050565b8060065f8473ffffffffffffffffffffffffffffffffffffffff1673ffffffffffffffffffffffffffffffffffffffff1681526020019081526020015f20541015610d1a576040517f08c379a0000000000000000000000000000000000000000000000000000000008152600401610d11906115ef565b60405180910390fd5b8060065f8473ffffffffffffffffffffffffffffffffffffffff1673ffffffffffffffffffffffffffffffffffffffff1681526020019081526020015f205f828254610d66919061143a565b925050819055508060085f828254610d7e919061143a565b9250508190555080600a5f828254610d96919061160d565b925050819055508173ffffffffffffffffffffffffffffffffffffffff167fcc16f5dbb4873280815c1ee09dbd06736cffcc184412cf7a71a0fdb75d397ca582604051610de391906111ef565b60405180910390a25f73ffffffffffffffffffffffffffffffffffffffff168273ffffffffffffffffffffffffffffffffffffffff167fddf252ad1be2c89b69c2b068fc378daa952ba7f163c4a11628f55a4df523b3ef83604051610e4891906111ef565b60405180910390a35050565b5f73ffffffffffffffffffffffffffffffffffffffff168273ffffffffffffffffffffffffffffffffffffffff1603610ec2576040517f08c379a0000000000000000000000000000000000000000000000000000000008152600401610eb99061168a565b60405180910390fd5b60035481600854610ed3919061160d565b1115610f14576040517f08c379a0000000000000000000000000000000000000000000000000000000008152600401610f0b906116f2565b60405180910390fd5b8060085f828254610f25919061160d565b925050819055508060065f8473ffffffffffffffffffffffffffffffffffffffff1673ffffffffffffffffffffffffffffffffffffffff1681526020019081526020015f205f828254610f78919061160d565b925050819055508060095f828254610f90919061160d565b925050819055508173ffffffffffffffffffffffffffffffffffffffff167f0f6798a560793a54c3bcfe86a93cde1e73087d944c0ea20544137d412139688582604051610fdd91906111ef565b60405180910390a28173ffffffffffffffffffffffffffffffffffffffff165f73ffffffffffffffffffffffffffffffffffffffff167fddf252ad1be2c89b69c2b068fc378daa952ba7f163c4a11628f55a4df523b3ef8360405161104291906111ef565b60405180910390a35050565b5f81519050919050565b5f82825260208201905092915050565b8281835e5f83830152505050565b5f601f19601f8301169050919050565b5f6110908261104e565b61109a8185611058565b93506110aa818560208601611068565b6110b381611076565b840191505092915050565b5f6020820190508181035f8301526110d68184611086565b905092915050565b5f80fd5b5f73ffffffffffffffffffffffffffffffffffffffff82169050919050565b5f61110b826110e2565b9050919050565b61111b81611101565b8114611125575f80fd5b50565b5f8135905061113681611112565b92915050565b5f819050919050565b61114e8161113c565b8114611158575f80fd5b50565b5f8135905061116981611145565b92915050565b5f8060408385031215611185576111846110de565b5b5f61119285828601611128565b92505060206111a38582860161115b565b9150509250929050565b5f8115159050919050565b6111c1816111ad565b82525050565b5f6020820190506111da5f8301846111b8565b92915050565b6111e98161113c565b82525050565b5f6020820190506112025f8301846111e0565b92915050565b5f805f6060848603121561121f5761121e6110de565b5b5f61122c86828701611128565b935050602061123d86828701611128565b925050604061124e8682870161115b565b9150509250925092565b5f60ff82169050919050565b61126d81611258565b82525050565b5f6020820190506112865f830184611264565b92915050565b5f602082840312156112a1576112a06110de565b5b5f6112ae8482850161115b565b91505092915050565b5f602082840312156112cc576112cb6110de565b5b5f6112d984828501611128565b91505092915050565b6112eb81611101565b82525050565b5f6020820190506113045f8301846112e2565b92915050565b5f80604083850312156113205761131f6110de565b5b5f61132d85828601611128565b925050602061133e85828601611128565b9150509250929050565b7f4e487b71000000000000000000000000000000000000000000000000000000005f52602260045260245ffd5b5f600282049050600182168061138c57607f821691505b60208210810361139f5761139e611348565b5b50919050565b7f416c6c6f77616e6365206c6f77000000000000000000000000000000000000005f82015250565b5f6113d9600d83611058565b91506113e4826113a5565b602082019050919050565b5f6020820190508181035f830152611406816113cd565b9050919050565b7f4e487b71000000000000000000000000000000000000000000000000000000005f52601160045260245ffd5b5f6114448261113c565b915061144f8361113c565b92508282039050818111156114675761146661140d565b5b92915050565b7f4f6e6c79206f776e6572000000000000000000000000000000000000000000005f82015250565b5f6114a1600a83611058565b91506114ac8261146d565b602082019050919050565b5f6020820190508181035f8301526114ce81611495565b9050919050565b7f5374616b696e67206e6f742073657400000000000000000000000000000000005f82015250565b5f611509600f83611058565b9150611514826114d5565b602082019050919050565b5f6020820190508181035f830152611536816114fd565b9050919050565b7f496e76616c6964206164647265737300000000000000000000000000000000005f82015250565b5f611571600f83611058565b915061157c8261153d565b602082019050919050565b5f6020820190508181035f83015261159e81611565565b9050919050565b7f42616c616e6365206c6f770000000000000000000000000000000000000000005f82015250565b5f6115d9600b83611058565b91506115e4826115a5565b602082019050919050565b5f6020820190508181035f830152611606816115cd565b9050919050565b5f6116178261113c565b91506116228361113c565b925082820190508082111561163a5761163961140d565b5b92915050565b7f5a65726f206164647265737300000000000000000000000000000000000000005f82015250565b5f611674600c83611058565b915061167f82611640565b602082019050919050565b5f6020820190508181035f8301526116a181611668565b9050919050565b7f45786365656473206361700000000000000000000000000000000000000000005f82015250565b5f6116dc600b83611058565b91506116e7826116a8565b602082019050919050565b5f6020820190508181035f830152611709816116d0565b905091905056fea264697066735822122087da7ba299c3fabf5b2b9251268405a8a179725db366991aa50c96fd12c9267664736f6c634300081a0033",
  "linkReferences": {},
  "deployedLinkReferences": {}
}